{
  "contractName": "BIoTMgmt",
  "abi": [
    {
      "inputs": [],
      "stateMutability": "nonpayable",
      "type": "constructor"
    },
    {
      "inputs": [],
      "name": "ACTUATOR",
      "outputs": [
        {
          "internalType": "uint256",
          "name": "",
          "type": "uint256"
        }
      ],
      "stateMutability": "view",
      "type": "function",
      "constant": true
    },
    {
      "inputs": [],
      "name": "ACT_COMMAND",
      "outputs": [
        {
          "internalType": "uint256",
          "name": "",
          "type": "uint256"
        }
      ],
      "stateMutability": "view",
      "type": "function",
      "constant": true
    },
    {
      "inputs": [],
      "name": "AMOUNT_ACTUATORS",
      "outputs": [
        {
          "internalType": "uint256",
          "name": "",
          "type": "uint256"
        }
      ],
      "stateMutability": "view",
      "type": "function",
      "constant": true
    },
    {
      "inputs": [],
      "name": "AMOUNT_SENSORS",
      "outputs": [
        {
          "internalType": "uint256",
          "name": "",
          "type": "uint256"
        }
      ],
      "stateMutability": "view",
      "type": "function",
      "constant": true
    },
    {
      "inputs": [],
      "name": "COMPUTE_NODE",
      "outputs": [
        {
          "internalType": "uint256",
          "name": "",
          "type": "uint256"
        }
      ],
      "stateMutability": "view",
      "type": "function",
      "constant": true
    },
    {
      "inputs": [],
      "name": "CONFIG_VARS_MAX",
      "outputs": [
        {
          "internalType": "uint256",
          "name": "",
          "type": "uint256"
        }
      ],
      "stateMutability": "view",
      "type": "function",
      "constant": true
    },
    {
      "inputs": [],
      "name": "DEFAULT_ID",
      "outputs": [
        {
          "internalType": "uint256",
          "name": "",
          "type": "uint256"
        }
      ],
      "stateMutability": "view",
      "type": "function",
      "constant": true
    },
    {
      "inputs": [],
      "name": "DEFAULT_VALUE",
      "outputs": [
        {
          "internalType": "uint256",
          "name": "",
          "type": "uint256"
        }
      ],
      "stateMutability": "view",
      "type": "function",
      "constant": true
    },
    {
      "inputs": [],
      "name": "DEVICE_AMOUNT_MAX",
      "outputs": [
        {
          "internalType": "uint256",
          "name": "",
          "type": "uint256"
        }
      ],
      "stateMutability": "view",
      "type": "function",
      "constant": true
    },
    {
      "inputs": [],
      "name": "HIGH",
      "outputs": [
        {
          "internalType": "uint256",
          "name": "",
          "type": "uint256"
        }
      ],
      "stateMutability": "view",
      "type": "function",
      "constant": true
    },
    {
      "inputs": [],
      "name": "ID",
      "outputs": [
        {
          "internalType": "uint256",
          "name": "",
          "type": "uint256"
        }
      ],
      "stateMutability": "view",
      "type": "function",
      "constant": true
    },
    {
      "inputs": [],
      "name": "LAST_READING",
      "outputs": [
        {
          "internalType": "uint256",
          "name": "",
          "type": "uint256"
        }
      ],
      "stateMutability": "view",
      "type": "function",
      "constant": true
    },
    {
      "inputs": [],
      "name": "LOW",
      "outputs": [
        {
          "internalType": "uint256",
          "name": "",
          "type": "uint256"
        }
      ],
      "stateMutability": "view",
      "type": "function",
      "constant": true
    },
    {
      "inputs": [],
      "name": "ON_OFF_STATUS",
      "outputs": [
        {
          "internalType": "uint256",
          "name": "",
          "type": "uint256"
        }
      ],
      "stateMutability": "view",
      "type": "function",
      "constant": true
    },
    {
      "inputs": [],
      "name": "PARENT",
      "outputs": [
        {
          "internalType": "uint256",
          "name": "",
          "type": "uint256"
        }
      ],
      "stateMutability": "view",
      "type": "function",
      "constant": true
    },
    {
      "inputs": [],
      "name": "PERMISSION",
      "outputs": [
        {
          "internalType": "uint256",
          "name": "",
          "type": "uint256"
        }
      ],
      "stateMutability": "view",
      "type": "function",
      "constant": true
    },
    {
      "inputs": [],
      "name": "PUBLIC_KEY",
      "outputs": [
        {
          "internalType": "uint256",
          "name": "",
          "type": "uint256"
        }
      ],
      "stateMutability": "view",
      "type": "function",
      "constant": true
    },
    {
      "inputs": [],
      "name": "SENSOR",
      "outputs": [
        {
          "internalType": "uint256",
          "name": "",
          "type": "uint256"
        }
      ],
      "stateMutability": "view",
      "type": "function",
      "constant": true
    },
    {
      "inputs": [],
      "name": "THRESHOLD",
      "outputs": [
        {
          "internalType": "uint256",
          "name": "",
          "type": "uint256"
        }
      ],
      "stateMutability": "view",
      "type": "function",
      "constant": true
    },
    {
      "inputs": [],
      "name": "TYPE",
      "outputs": [
        {
          "internalType": "uint256",
          "name": "",
          "type": "uint256"
        }
      ],
      "stateMutability": "view",
      "type": "function",
      "constant": true
    },
    {
      "inputs": [],
      "name": "amount_devices",
      "outputs": [
        {
          "internalType": "uint256",
          "name": "",
          "type": "uint256"
        }
      ],
      "stateMutability": "view",
      "type": "function",
      "constant": true
    },
    {
      "inputs": [],
      "name": "amount_keys_a",
      "outputs": [
        {
          "internalType": "uint256",
          "name": "",
          "type": "uint256"
        }
      ],
      "stateMutability": "view",
      "type": "function",
      "constant": true
    },
    {
      "inputs": [],
      "name": "amount_keys_all",
      "outputs": [
        {
          "internalType": "uint256",
          "name": "",
          "type": "uint256"
        }
      ],
      "stateMutability": "view",
      "type": "function",
      "constant": true
    },
    {
      "inputs": [],
      "name": "amount_keys_cn",
      "outputs": [
        {
          "internalType": "uint256",
          "name": "",
          "type": "uint256"
        }
      ],
      "stateMutability": "view",
      "type": "function",
      "constant": true
    },
    {
      "inputs": [],
      "name": "amount_keys_s",
      "outputs": [
        {
          "internalType": "uint256",
          "name": "",
          "type": "uint256"
        }
      ],
      "stateMutability": "view",
      "type": "function",
      "constant": true
    },
    {
      "inputs": [],
      "name": "amount_keys_sa",
      "outputs": [
        {
          "internalType": "uint256",
          "name": "",
          "type": "uint256"
        }
      ],
      "stateMutability": "view",
      "type": "function",
      "constant": true
    },
    {
      "inputs": [
        {
          "internalType": "uint256",
          "name": "",
          "type": "uint256"
        }
      ],
      "name": "configkeys_a",
      "outputs": [
        {
          "internalType": "uint256",
          "name": "",
          "type": "uint256"
        }
      ],
      "stateMutability": "view",
      "type": "function",
      "constant": true
    },
    {
      "inputs": [
        {
          "internalType": "uint256",
          "name": "",
          "type": "uint256"
        }
      ],
      "name": "configkeys_all",
      "outputs": [
        {
          "internalType": "uint256",
          "name": "",
          "type": "uint256"
        }
      ],
      "stateMutability": "view",
      "type": "function",
      "constant": true
    },
    {
      "inputs": [
        {
          "internalType": "uint256",
          "name": "",
          "type": "uint256"
        }
      ],
      "name": "configkeys_cn",
      "outputs": [
        {
          "internalType": "uint256",
          "name": "",
          "type": "uint256"
        }
      ],
      "stateMutability": "view",
      "type": "function",
      "constant": true
    },
    {
      "inputs": [
        {
          "internalType": "uint256",
          "name": "",
          "type": "uint256"
        }
      ],
      "name": "configkeys_s",
      "outputs": [
        {
          "internalType": "uint256",
          "name": "",
          "type": "uint256"
        }
      ],
      "stateMutability": "view",
      "type": "function",
      "constant": true
    },
    {
      "inputs": [
        {
          "internalType": "uint256",
          "name": "",
          "type": "uint256"
        }
      ],
      "name": "configkeys_sa",
      "outputs": [
        {
          "internalType": "uint256",
          "name": "",
          "type": "uint256"
        }
      ],
      "stateMutability": "view",
      "type": "function",
      "constant": true
    },
    {
      "inputs": [
        {
          "internalType": "uint256",
          "name": "",
          "type": "uint256"
        },
        {
          "internalType": "uint256",
          "name": "",
          "type": "uint256"
        }
      ],
      "name": "devices",
      "outputs": [
        {
          "internalType": "uint256",
          "name": "",
          "type": "uint256"
        }
      ],
      "stateMutability": "view",
      "type": "function",
      "constant": true
    },
    {
      "inputs": [
        {
          "internalType": "uint256",
          "name": "",
          "type": "uint256"
        }
      ],
      "name": "ids",
      "outputs": [
        {
          "internalType": "uint256",
          "name": "",
          "type": "uint256"
        }
      ],
      "stateMutability": "view",
      "type": "function",
      "constant": true
    },
    {
      "inputs": [],
      "name": "idseq",
      "outputs": [
        {
          "internalType": "uint256",
          "name": "",
          "type": "uint256"
        }
      ],
      "stateMutability": "view",
      "type": "function",
      "constant": true
    },
    {
      "inputs": [],
      "name": "pingvalue",
      "outputs": [
        {
          "internalType": "bool",
          "name": "",
          "type": "bool"
        }
      ],
      "stateMutability": "view",
      "type": "function",
      "constant": true
    },
    {
      "inputs": [
        {
          "internalType": "uint256",
          "name": "",
          "type": "uint256"
        },
        {
          "internalType": "uint256",
          "name": "",
          "type": "uint256"
        }
      ],
      "name": "subactuators",
      "outputs": [
        {
          "internalType": "uint256",
          "name": "",
          "type": "uint256"
        }
      ],
      "stateMutability": "view",
      "type": "function",
      "constant": true
    },
    {
      "inputs": [
        {
          "internalType": "uint256",
          "name": "",
          "type": "uint256"
        },
        {
          "internalType": "uint256",
          "name": "",
          "type": "uint256"
        }
      ],
      "name": "subsensors",
      "outputs": [
        {
          "internalType": "uint256",
          "name": "",
          "type": "uint256"
        }
      ],
      "stateMutability": "view",
      "type": "function",
      "constant": true
    },
    {
      "inputs": [],
      "name": "initKeyValueLists",
      "outputs": [
        {
          "internalType": "bool",
          "name": "success",
          "type": "bool"
        }
      ],
      "stateMutability": "nonpayable",
      "type": "function"
    },
    {
      "inputs": [
        {
          "internalType": "uint256",
          "name": "target",
          "type": "uint256"
        }
      ],
      "name": "findIDInDeviceArray",
      "outputs": [
        {
          "internalType": "uint256",
          "name": "devindex",
          "type": "uint256"
        }
      ],
      "stateMutability": "view",
      "type": "function",
      "constant": true
    },
    {
      "inputs": [
        {
          "internalType": "uint256",
          "name": "id",
          "type": "uint256"
        },
        {
          "internalType": "uint256",
          "name": "key",
          "type": "uint256"
        },
        {
          "internalType": "uint256",
          "name": "value",
          "type": "uint256"
        }
      ],
      "name": "writeDeviceVariable",
      "outputs": [
        {
          "internalType": "bool",
          "name": "success",
          "type": "bool"
        }
      ],
      "stateMutability": "nonpayable",
      "type": "function"
    },
    {
      "inputs": [
        {
          "internalType": "uint256",
          "name": "id",
          "type": "uint256"
        },
        {
          "internalType": "uint256",
          "name": "key",
          "type": "uint256"
        }
      ],
      "name": "readDeviceVariable",
      "outputs": [
        {
          "internalType": "uint256",
          "name": "configval",
          "type": "uint256"
        }
      ],
      "stateMutability": "view",
      "type": "function",
      "constant": true
    },
    {
      "inputs": [
        {
          "internalType": "uint256",
          "name": "id",
          "type": "uint256"
        },
        {
          "internalType": "uint256",
          "name": "key",
          "type": "uint256"
        }
      ],
      "name": "deleteDeviceVariable",
      "outputs": [
        {
          "internalType": "bool",
          "name": "success",
          "type": "bool"
        }
      ],
      "stateMutability": "nonpayable",
      "type": "function"
    },
    {
      "inputs": [
        {
          "internalType": "uint256",
          "name": "id",
          "type": "uint256"
        },
        {
          "internalType": "uint256",
          "name": "key",
          "type": "uint256"
        }
      ],
      "name": "incrementDeviceVariable",
      "outputs": [
        {
          "internalType": "bool",
          "name": "success",
          "type": "bool"
        }
      ],
      "stateMutability": "nonpayable",
      "type": "function"
    },
    {
      "inputs": [
        {
          "internalType": "uint256",
          "name": "id",
          "type": "uint256"
        },
        {
          "internalType": "uint256",
          "name": "key",
          "type": "uint256"
        }
      ],
      "name": "decrementDeviceVariable",
      "outputs": [
        {
          "internalType": "bool",
          "name": "success",
          "type": "bool"
        }
      ],
      "stateMutability": "nonpayable",
      "type": "function"
    },
    {
      "inputs": [
        {
          "internalType": "uint256",
          "name": "id",
          "type": "uint256"
        }
      ],
      "name": "deviceExists",
      "outputs": [
        {
          "internalType": "bool",
          "name": "success",
          "type": "bool"
        }
      ],
      "stateMutability": "view",
      "type": "function",
      "constant": true
    },
    {
      "inputs": [
        {
          "internalType": "uint256",
          "name": "id",
          "type": "uint256"
        }
      ],
      "name": "isComputeNode",
      "outputs": [
        {
          "internalType": "bool",
          "name": "success",
          "type": "bool"
        }
      ],
      "stateMutability": "view",
      "type": "function",
      "constant": true
    },
    {
      "inputs": [
        {
          "internalType": "uint256",
          "name": "id",
          "type": "uint256"
        }
      ],
      "name": "isSensor",
      "outputs": [
        {
          "internalType": "bool",
          "name": "success",
          "type": "bool"
        }
      ],
      "stateMutability": "view",
      "type": "function",
      "constant": true
    },
    {
      "inputs": [
        {
          "internalType": "uint256",
          "name": "id",
          "type": "uint256"
        }
      ],
      "name": "isActuator",
      "outputs": [
        {
          "internalType": "bool",
          "name": "success",
          "type": "bool"
        }
      ],
      "stateMutability": "view",
      "type": "function",
      "constant": true
    },
    {
      "inputs": [
        {
          "internalType": "uint256",
          "name": "id",
          "type": "uint256"
        }
      ],
      "name": "isSensorOrActuator",
      "outputs": [
        {
          "internalType": "bool",
          "name": "success",
          "type": "bool"
        }
      ],
      "stateMutability": "view",
      "type": "function",
      "constant": true
    },
    {
      "inputs": [
        {
          "internalType": "uint256",
          "name": "cn_id",
          "type": "uint256"
        },
        {
          "internalType": "uint256",
          "name": "sa_id",
          "type": "uint256"
        }
      ],
      "name": "isChildOfCN",
      "outputs": [
        {
          "internalType": "bool",
          "name": "success",
          "type": "bool"
        }
      ],
      "stateMutability": "view",
      "type": "function",
      "constant": true
    },
    {
      "inputs": [],
      "name": "newDeviceStillFits",
      "outputs": [
        {
          "internalType": "bool",
          "name": "success",
          "type": "bool"
        }
      ],
      "stateMutability": "view",
      "type": "function",
      "constant": true
    },
    {
      "inputs": [
        {
          "internalType": "uint256",
          "name": "cn_id",
          "type": "uint256"
        }
      ],
      "name": "newSensorStillFitsCN",
      "outputs": [
        {
          "internalType": "bool",
          "name": "success",
          "type": "bool"
        }
      ],
      "stateMutability": "view",
      "type": "function",
      "constant": true
    },
    {
      "inputs": [
        {
          "internalType": "uint256",
          "name": "cn_id",
          "type": "uint256"
        }
      ],
      "name": "newActuatorStillFitsCN",
      "outputs": [
        {
          "internalType": "bool",
          "name": "success",
          "type": "bool"
        }
      ],
      "stateMutability": "view",
      "type": "function",
      "constant": true
    },
    {
      "inputs": [],
      "name": "knownDevicesExist",
      "outputs": [
        {
          "internalType": "bool",
          "name": "success",
          "type": "bool"
        }
      ],
      "stateMutability": "view",
      "type": "function",
      "constant": true
    },
    {
      "inputs": [
        {
          "internalType": "uint256",
          "name": "index",
          "type": "uint256"
        }
      ],
      "name": "canDeleteDevice",
      "outputs": [
        {
          "internalType": "bool",
          "name": "success",
          "type": "bool"
        }
      ],
      "stateMutability": "view",
      "type": "function",
      "constant": true
    },
    {
      "inputs": [
        {
          "internalType": "uint256",
          "name": "cn_id",
          "type": "uint256"
        },
        {
          "internalType": "uint256",
          "name": "index",
          "type": "uint256"
        }
      ],
      "name": "canUnlinkSensor",
      "outputs": [
        {
          "internalType": "bool",
          "name": "success",
          "type": "bool"
        }
      ],
      "stateMutability": "view",
      "type": "function",
      "constant": true
    },
    {
      "inputs": [
        {
          "internalType": "uint256",
          "name": "cn_id",
          "type": "uint256"
        },
        {
          "internalType": "uint256",
          "name": "index",
          "type": "uint256"
        }
      ],
      "name": "canUnlinkActuator",
      "outputs": [
        {
          "internalType": "bool",
          "name": "success",
          "type": "bool"
        }
      ],
      "stateMutability": "view",
      "type": "function",
      "constant": true
    },
    {
      "inputs": [
        {
          "internalType": "uint256",
          "name": "id",
          "type": "uint256"
        }
      ],
      "name": "hasParent",
      "outputs": [
        {
          "internalType": "bool",
          "name": "success",
          "type": "bool"
        }
      ],
      "stateMutability": "view",
      "type": "function",
      "constant": true
    },
    {
      "inputs": [],
      "name": "canFitNewKeyForCNs",
      "outputs": [
        {
          "internalType": "bool",
          "name": "success",
          "type": "bool"
        }
      ],
      "stateMutability": "view",
      "type": "function",
      "constant": true
    },
    {
      "inputs": [],
      "name": "canFitNewKeyForSensors",
      "outputs": [
        {
          "internalType": "bool",
          "name": "success",
          "type": "bool"
        }
      ],
      "stateMutability": "view",
      "type": "function",
      "constant": true
    },
    {
      "inputs": [],
      "name": "canFitNewKeyForActuators",
      "outputs": [
        {
          "internalType": "bool",
          "name": "success",
          "type": "bool"
        }
      ],
      "stateMutability": "view",
      "type": "function",
      "constant": true
    },
    {
      "inputs": [],
      "name": "canFitNewKeyForSensorsAndActuators",
      "outputs": [
        {
          "internalType": "bool",
          "name": "success",
          "type": "bool"
        }
      ],
      "stateMutability": "view",
      "type": "function",
      "constant": true
    },
    {
      "inputs": [],
      "name": "canFitNewKeyForAll",
      "outputs": [
        {
          "internalType": "bool",
          "name": "success",
          "type": "bool"
        }
      ],
      "stateMutability": "view",
      "type": "function",
      "constant": true
    },
    {
      "inputs": [
        {
          "internalType": "uint256",
          "name": "i",
          "type": "uint256"
        },
        {
          "internalType": "uint256",
          "name": "j",
          "type": "uint256"
        }
      ],
      "name": "swapDeviceIndices",
      "outputs": [
        {
          "internalType": "bool",
          "name": "success",
          "type": "bool"
        }
      ],
      "stateMutability": "nonpayable",
      "type": "function"
    },
    {
      "inputs": [
        {
          "internalType": "uint256",
          "name": "cn_id",
          "type": "uint256"
        },
        {
          "internalType": "uint256",
          "name": "i",
          "type": "uint256"
        },
        {
          "internalType": "uint256",
          "name": "j",
          "type": "uint256"
        }
      ],
      "name": "swapSubSensorIndices",
      "outputs": [
        {
          "internalType": "bool",
          "name": "success",
          "type": "bool"
        }
      ],
      "stateMutability": "nonpayable",
      "type": "function"
    },
    {
      "inputs": [
        {
          "internalType": "uint256",
          "name": "cn_id",
          "type": "uint256"
        },
        {
          "internalType": "uint256",
          "name": "i",
          "type": "uint256"
        },
        {
          "internalType": "uint256",
          "name": "j",
          "type": "uint256"
        }
      ],
      "name": "swapSubActuatorIndices",
      "outputs": [
        {
          "internalType": "bool",
          "name": "success",
          "type": "bool"
        }
      ],
      "stateMutability": "nonpayable",
      "type": "function"
    },
    {
      "inputs": [],
      "name": "zeroShiftDeviceArray",
      "outputs": [
        {
          "internalType": "bool",
          "name": "success",
          "type": "bool"
        }
      ],
      "stateMutability": "nonpayable",
      "type": "function"
    },
    {
      "inputs": [
        {
          "internalType": "uint256",
          "name": "id",
          "type": "uint256"
        }
      ],
      "name": "zeroShiftSubSensorArray",
      "outputs": [
        {
          "internalType": "bool",
          "name": "success",
          "type": "bool"
        }
      ],
      "stateMutability": "nonpayable",
      "type": "function"
    },
    {
      "inputs": [
        {
          "internalType": "uint256",
          "name": "id",
          "type": "uint256"
        }
      ],
      "name": "zeroShiftSubActuatorArray",
      "outputs": [
        {
          "internalType": "bool",
          "name": "success",
          "type": "bool"
        }
      ],
      "stateMutability": "nonpayable",
      "type": "function"
    },
    {
      "inputs": [
        {
          "internalType": "uint256",
          "name": "cn_id",
          "type": "uint256"
        },
        {
          "internalType": "uint256",
          "name": "target",
          "type": "uint256"
        }
      ],
      "name": "findIDInSubSensorArray",
      "outputs": [
        {
          "internalType": "uint256",
          "name": "devindex",
          "type": "uint256"
        }
      ],
      "stateMutability": "view",
      "type": "function",
      "constant": true
    },
    {
      "inputs": [
        {
          "internalType": "uint256",
          "name": "cn_id",
          "type": "uint256"
        },
        {
          "internalType": "uint256",
          "name": "target",
          "type": "uint256"
        }
      ],
      "name": "findIDInSubActuatorArray",
      "outputs": [
        {
          "internalType": "uint256",
          "name": "devindex",
          "type": "uint256"
        }
      ],
      "stateMutability": "view",
      "type": "function",
      "constant": true
    },
    {
      "inputs": [
        {
          "internalType": "uint256",
          "name": "index",
          "type": "uint256"
        }
      ],
      "name": "getDevice",
      "outputs": [
        {
          "internalType": "uint256",
          "name": "dev_id",
          "type": "uint256"
        }
      ],
      "stateMutability": "view",
      "type": "function",
      "constant": true
    },
    {
      "inputs": [
        {
          "internalType": "uint256",
          "name": "cn_id",
          "type": "uint256"
        },
        {
          "internalType": "uint256",
          "name": "index",
          "type": "uint256"
        }
      ],
      "name": "getSubSensor",
      "outputs": [
        {
          "internalType": "uint256",
          "name": "dev_id",
          "type": "uint256"
        }
      ],
      "stateMutability": "view",
      "type": "function",
      "constant": true
    },
    {
      "inputs": [
        {
          "internalType": "uint256",
          "name": "cn_id",
          "type": "uint256"
        },
        {
          "internalType": "uint256",
          "name": "index",
          "type": "uint256"
        }
      ],
      "name": "getSubActuator",
      "outputs": [
        {
          "internalType": "uint256",
          "name": "dev_id",
          "type": "uint256"
        }
      ],
      "stateMutability": "view",
      "type": "function",
      "constant": true
    },
    {
      "inputs": [
        {
          "internalType": "uint256",
          "name": "new_id",
          "type": "uint256"
        }
      ],
      "name": "insertIntoDeviceArray",
      "outputs": [
        {
          "internalType": "bool",
          "name": "success",
          "type": "bool"
        }
      ],
      "stateMutability": "nonpayable",
      "type": "function"
    },
    {
      "inputs": [
        {
          "internalType": "uint256",
          "name": "cn_id",
          "type": "uint256"
        },
        {
          "internalType": "uint256",
          "name": "sa_id",
          "type": "uint256"
        }
      ],
      "name": "insertIntoSubSensorArray",
      "outputs": [
        {
          "internalType": "bool",
          "name": "success",
          "type": "bool"
        }
      ],
      "stateMutability": "nonpayable",
      "type": "function"
    },
    {
      "inputs": [
        {
          "internalType": "uint256",
          "name": "cn_id",
          "type": "uint256"
        },
        {
          "internalType": "uint256",
          "name": "sa_id",
          "type": "uint256"
        }
      ],
      "name": "insertIntoSubActuatorArray",
      "outputs": [
        {
          "internalType": "bool",
          "name": "success",
          "type": "bool"
        }
      ],
      "stateMutability": "nonpayable",
      "type": "function"
    },
    {
      "inputs": [],
      "name": "generateUniqueID",
      "outputs": [
        {
          "internalType": "uint256",
          "name": "new_id",
          "type": "uint256"
        }
      ],
      "stateMutability": "nonpayable",
      "type": "function"
    },
    {
      "inputs": [
        {
          "internalType": "uint256",
          "name": "index",
          "type": "uint256"
        }
      ],
      "name": "deleteFromDeviceArray",
      "outputs": [
        {
          "internalType": "bool",
          "name": "success",
          "type": "bool"
        }
      ],
      "stateMutability": "nonpayable",
      "type": "function"
    },
    {
      "inputs": [
        {
          "internalType": "uint256",
          "name": "cn_id",
          "type": "uint256"
        },
        {
          "internalType": "uint256",
          "name": "index",
          "type": "uint256"
        }
      ],
      "name": "deleteFromSubSensorArray",
      "outputs": [
        {
          "internalType": "bool",
          "name": "success",
          "type": "bool"
        }
      ],
      "stateMutability": "nonpayable",
      "type": "function"
    },
    {
      "inputs": [
        {
          "internalType": "uint256",
          "name": "cn_id",
          "type": "uint256"
        },
        {
          "internalType": "uint256",
          "name": "index",
          "type": "uint256"
        }
      ],
      "name": "deleteFromSubActuatorArray",
      "outputs": [
        {
          "internalType": "bool",
          "name": "success",
          "type": "bool"
        }
      ],
      "stateMutability": "nonpayable",
      "type": "function"
    },
    {
      "inputs": [
        {
          "internalType": "uint256",
          "name": "sa_id",
          "type": "uint256"
        },
        {
          "internalType": "uint256",
          "name": "sa_tipo",
          "type": "uint256"
        },
        {
          "internalType": "uint256",
          "name": "sa_index",
          "type": "uint256"
        },
        {
          "internalType": "uint256",
          "name": "cn_id",
          "type": "uint256"
        }
      ],
      "name": "unlinkDeviceFromComputeNode",
      "outputs": [
        {
          "internalType": "bool",
          "name": "success",
          "type": "bool"
        }
      ],
      "stateMutability": "nonpayable",
      "type": "function"
    },
    {
      "inputs": [
        {
          "internalType": "uint256",
          "name": "sa_id",
          "type": "uint256"
        },
        {
          "internalType": "uint256",
          "name": "cn_id",
          "type": "uint256"
        }
      ],
      "name": "linkDeviceToComputeNode",
      "outputs": [
        {
          "internalType": "bool",
          "name": "success",
          "type": "bool"
        }
      ],
      "stateMutability": "nonpayable",
      "type": "function"
    },
    {
      "inputs": [
        {
          "internalType": "uint256",
          "name": "key",
          "type": "uint256"
        },
        {
          "internalType": "uint256",
          "name": "value",
          "type": "uint256"
        }
      ],
      "name": "bulkWriteDeviceVariable",
      "outputs": [
        {
          "internalType": "bool",
          "name": "success",
          "type": "bool"
        }
      ],
      "stateMutability": "nonpayable",
      "type": "function"
    },
    {
      "inputs": [
        {
          "internalType": "uint256",
          "name": "cn_id",
          "type": "uint256"
        },
        {
          "internalType": "uint256",
          "name": "key",
          "type": "uint256"
        },
        {
          "internalType": "uint256",
          "name": "value",
          "type": "uint256"
        }
      ],
      "name": "bulkWriteSubSensorVariable",
      "outputs": [
        {
          "internalType": "bool",
          "name": "success",
          "type": "bool"
        }
      ],
      "stateMutability": "nonpayable",
      "type": "function"
    },
    {
      "inputs": [
        {
          "internalType": "uint256",
          "name": "cn_id",
          "type": "uint256"
        },
        {
          "internalType": "uint256",
          "name": "key",
          "type": "uint256"
        },
        {
          "internalType": "uint256",
          "name": "value",
          "type": "uint256"
        }
      ],
      "name": "bulkWriteSubActuatorVariable",
      "outputs": [
        {
          "internalType": "bool",
          "name": "success",
          "type": "bool"
        }
      ],
      "stateMutability": "nonpayable",
      "type": "function"
    },
    {
      "inputs": [
        {
          "internalType": "uint256",
          "name": "id",
          "type": "uint256"
        },
        {
          "internalType": "uint256",
          "name": "tipo",
          "type": "uint256"
        }
      ],
      "name": "applyDefaultConfig",
      "outputs": [
        {
          "internalType": "bool",
          "name": "success",
          "type": "bool"
        }
      ],
      "stateMutability": "nonpayable",
      "type": "function"
    },
    {
      "inputs": [
        {
          "internalType": "uint256",
          "name": "id",
          "type": "uint256"
        }
      ],
      "name": "clearDeviceConfig",
      "outputs": [
        {
          "internalType": "bool",
          "name": "success",
          "type": "bool"
        }
      ],
      "stateMutability": "nonpayable",
      "type": "function"
    },
    {
      "inputs": [
        {
          "internalType": "uint256",
          "name": "id_src",
          "type": "uint256"
        },
        {
          "internalType": "uint256",
          "name": "id_dest",
          "type": "uint256"
        }
      ],
      "name": "cloneConfig",
      "outputs": [
        {
          "internalType": "bool",
          "name": "success",
          "type": "bool"
        }
      ],
      "stateMutability": "nonpayable",
      "type": "function"
    },
    {
      "inputs": [
        {
          "internalType": "uint256",
          "name": "key",
          "type": "uint256"
        }
      ],
      "name": "addCNKey",
      "outputs": [
        {
          "internalType": "bool",
          "name": "success",
          "type": "bool"
        }
      ],
      "stateMutability": "nonpayable",
      "type": "function"
    },
    {
      "inputs": [
        {
          "internalType": "uint256",
          "name": "key",
          "type": "uint256"
        }
      ],
      "name": "addSensorKey",
      "outputs": [
        {
          "internalType": "bool",
          "name": "success",
          "type": "bool"
        }
      ],
      "stateMutability": "nonpayable",
      "type": "function"
    },
    {
      "inputs": [
        {
          "internalType": "uint256",
          "name": "key",
          "type": "uint256"
        }
      ],
      "name": "addActuatorKey",
      "outputs": [
        {
          "internalType": "bool",
          "name": "success",
          "type": "bool"
        }
      ],
      "stateMutability": "nonpayable",
      "type": "function"
    },
    {
      "inputs": [
        {
          "internalType": "uint256",
          "name": "key",
          "type": "uint256"
        }
      ],
      "name": "addSatelliteKey",
      "outputs": [
        {
          "internalType": "bool",
          "name": "success",
          "type": "bool"
        }
      ],
      "stateMutability": "nonpayable",
      "type": "function"
    },
    {
      "inputs": [
        {
          "internalType": "uint256",
          "name": "key",
          "type": "uint256"
        }
      ],
      "name": "addDeviceKey",
      "outputs": [
        {
          "internalType": "bool",
          "name": "success",
          "type": "bool"
        }
      ],
      "stateMutability": "nonpayable",
      "type": "function"
    },
    {
      "inputs": [
        {
          "internalType": "uint256",
          "name": "tipo",
          "type": "uint256"
        }
      ],
      "name": "createDevice",
      "outputs": [
        {
          "internalType": "uint256",
          "name": "new_dev_id",
          "type": "uint256"
        }
      ],
      "stateMutability": "nonpayable",
      "type": "function"
    },
    {
      "inputs": [
        {
          "internalType": "uint256",
          "name": "id",
          "type": "uint256"
        },
        {
          "internalType": "uint256",
          "name": "devindex",
          "type": "uint256"
        }
      ],
      "name": "removeDevice",
      "outputs": [
        {
          "internalType": "bool",
          "name": "success",
          "type": "bool"
        }
      ],
      "stateMutability": "nonpayable",
      "type": "function"
    },
    {
      "inputs": [
        {
          "internalType": "uint256",
          "name": "id",
          "type": "uint256"
        },
        {
          "internalType": "uint256",
          "name": "devindex",
          "type": "uint256"
        },
        {
          "internalType": "uint256",
          "name": "sa_tipo",
          "type": "uint256"
        },
        {
          "internalType": "uint256",
          "name": "parent_cn",
          "type": "uint256"
        },
        {
          "internalType": "uint256",
          "name": "subindex",
          "type": "uint256"
        }
      ],
      "name": "deleteSatellite",
      "outputs": [
        {
          "internalType": "bool",
          "name": "success",
          "type": "bool"
        }
      ],
      "stateMutability": "nonpayable",
      "type": "function"
    },
    {
      "inputs": [
        {
          "internalType": "uint256",
          "name": "cn_id",
          "type": "uint256"
        }
      ],
      "name": "deleteSubSensors",
      "outputs": [
        {
          "internalType": "bool",
          "name": "success",
          "type": "bool"
        }
      ],
      "stateMutability": "nonpayable",
      "type": "function"
    },
    {
      "inputs": [
        {
          "internalType": "uint256",
          "name": "cn_id",
          "type": "uint256"
        }
      ],
      "name": "deleteSubActuators",
      "outputs": [
        {
          "internalType": "bool",
          "name": "success",
          "type": "bool"
        }
      ],
      "stateMutability": "nonpayable",
      "type": "function"
    },
    {
      "inputs": [
        {
          "internalType": "uint256",
          "name": "id",
          "type": "uint256"
        },
        {
          "internalType": "uint256",
          "name": "devindex",
          "type": "uint256"
        }
      ],
      "name": "deleteComputeNode",
      "outputs": [
        {
          "internalType": "bool",
          "name": "success",
          "type": "bool"
        }
      ],
      "stateMutability": "nonpayable",
      "type": "function"
    },
    {
      "inputs": [
        {
          "internalType": "uint256",
          "name": "id",
          "type": "uint256"
        }
      ],
      "name": "getDeviceInfo",
      "outputs": [
        {
          "internalType": "string",
          "name": "devicedata",
          "type": "string"
        }
      ],
      "stateMutability": "view",
      "type": "function",
      "constant": true
    },
    {
      "inputs": [
        {
          "internalType": "uint256",
          "name": "id",
          "type": "uint256"
        }
      ],
      "name": "getSatellites",
      "outputs": [
        {
          "internalType": "string",
          "name": "satellites",
          "type": "string"
        }
      ],
      "stateMutability": "view",
      "type": "function",
      "constant": true
    },
    {
      "inputs": [],
      "name": "getDevices",
      "outputs": [
        {
          "internalType": "string",
          "name": "devicelist",
          "type": "string"
        }
      ],
      "stateMutability": "view",
      "type": "function",
      "constant": true
    },
    {
      "inputs": [],
      "name": "pingBackEnd",
      "outputs": [
        {
          "internalType": "bool",
          "name": "success",
          "type": "bool"
        }
      ],
      "stateMutability": "view",
      "type": "function",
      "constant": true
    },
    {
      "inputs": [],
      "name": "getLatestID",
      "outputs": [
        {
          "internalType": "uint256",
          "name": "latestid",
          "type": "uint256"
        }
      ],
      "stateMutability": "view",
      "type": "function",
      "constant": true
    },
    {
      "inputs": [
        {
          "internalType": "uint256",
          "name": "id",
          "type": "uint256"
        }
      ],
      "name": "authDevice",
      "outputs": [
        {
          "internalType": "uint256",
          "name": "devpubkey",
          "type": "uint256"
        }
      ],
      "stateMutability": "view",
      "type": "function",
      "constant": true
    },
    {
      "inputs": [
        {
          "internalType": "uint256",
          "name": "id",
          "type": "uint256"
        }
      ],
      "name": "grantPerms",
      "outputs": [
        {
          "internalType": "bool",
          "name": "success",
          "type": "bool"
        }
      ],
      "stateMutability": "nonpayable",
      "type": "function"
    },
    {
      "inputs": [
        {
          "internalType": "uint256",
          "name": "id",
          "type": "uint256"
        }
      ],
      "name": "denyPerms",
      "outputs": [
        {
          "internalType": "bool",
          "name": "success",
          "type": "bool"
        }
      ],
      "stateMutability": "nonpayable",
      "type": "function"
    },
    {
      "inputs": [
        {
          "internalType": "uint256",
          "name": "id",
          "type": "uint256"
        }
      ],
      "name": "turnOnDevice",
      "outputs": [
        {
          "internalType": "bool",
          "name": "success",
          "type": "bool"
        }
      ],
      "stateMutability": "nonpayable",
      "type": "function"
    },
    {
      "inputs": [
        {
          "internalType": "uint256",
          "name": "id",
          "type": "uint256"
        }
      ],
      "name": "turnOffDevice",
      "outputs": [
        {
          "internalType": "bool",
          "name": "success",
          "type": "bool"
        }
      ],
      "stateMutability": "nonpayable",
      "type": "function"
    },
    {
      "inputs": [],
      "name": "turnOnAllDevices",
      "outputs": [
        {
          "internalType": "bool",
          "name": "success",
          "type": "bool"
        }
      ],
      "stateMutability": "nonpayable",
      "type": "function"
    },
    {
      "inputs": [],
      "name": "turnOffAllDevices",
      "outputs": [
        {
          "internalType": "bool",
          "name": "success",
          "type": "bool"
        }
      ],
      "stateMutability": "nonpayable",
      "type": "function"
    },
    {
      "inputs": [
        {
          "internalType": "uint256",
          "name": "cn_id",
          "type": "uint256"
        },
        {
          "internalType": "uint256",
          "name": "sensor_id",
          "type": "uint256"
        },
        {
          "internalType": "uint256",
          "name": "reading",
          "type": "uint256"
        }
      ],
      "name": "uploadReading",
      "outputs": [
        {
          "internalType": "bool",
          "name": "success",
          "type": "bool"
        }
      ],
      "stateMutability": "nonpayable",
      "type": "function"
    },
    {
      "inputs": [
        {
          "internalType": "uint256",
          "name": "cn_id",
          "type": "uint256"
        }
      ],
      "name": "evalSensors",
      "outputs": [
        {
          "internalType": "bool",
          "name": "success",
          "type": "bool"
        }
      ],
      "stateMutability": "nonpayable",
      "type": "function"
    },
    {
      "inputs": [
        {
          "internalType": "uint256",
          "name": "cn_id",
          "type": "uint256"
        }
      ],
      "name": "reportCommand",
      "outputs": [
        {
          "internalType": "uint256",
          "name": "command",
          "type": "uint256"
        }
      ],
      "stateMutability": "view",
      "type": "function",
      "constant": true
    },
    {
      "inputs": [
        {
          "internalType": "uint256",
          "name": "sa_id",
          "type": "uint256"
        }
      ],
      "name": "unlinkSubDevice",
      "outputs": [
        {
          "internalType": "bool",
          "name": "success",
          "type": "bool"
        }
      ],
      "stateMutability": "nonpayable",
      "type": "function"
    },
    {
      "inputs": [
        {
          "internalType": "uint256",
          "name": "id",
          "type": "uint256"
        }
      ],
      "name": "destroySatellite",
      "outputs": [
        {
          "internalType": "bool",
          "name": "success",
          "type": "bool"
        }
      ],
      "stateMutability": "nonpayable",
      "type": "function"
    },
    {
      "inputs": [
        {
          "internalType": "uint256",
          "name": "id",
          "type": "uint256"
        }
      ],
      "name": "destroyComputeNode",
      "outputs": [
        {
          "internalType": "bool",
          "name": "success",
          "type": "bool"
        }
      ],
      "stateMutability": "nonpayable",
      "type": "function"
    },
    {
      "inputs": [],
      "name": "deleteAllSatellites",
      "outputs": [
        {
          "internalType": "bool",
          "name": "success",
          "type": "bool"
        }
      ],
      "stateMutability": "nonpayable",
      "type": "function"
    },
    {
      "inputs": [],
      "name": "deleteAllDevices",
      "outputs": [
        {
          "internalType": "bool",
          "name": "success",
          "type": "bool"
        }
      ],
      "stateMutability": "nonpayable",
      "type": "function"
    },
    {
      "inputs": [
        {
          "internalType": "uint256",
          "name": "sa_id",
          "type": "uint256"
        }
      ],
      "name": "replaceDevice",
      "outputs": [
        {
          "internalType": "uint256",
          "name": "new_dev_id",
          "type": "uint256"
        }
      ],
      "stateMutability": "nonpayable",
      "type": "function"
    }
  ],
  "bytecode": "0x60806040526000603555600060365560006037556000603855600060395560006049556000604a556001604b60006101000a81548160ff0219169083151502179055503480156200004f57600080fd5b50620000606200006760201b60201c565b50620002a7565b60006003600062000079919062000244565b606e60036000600a811062000093576200009262000278565b5b0181905550607860036001600a8110620000b257620000b162000278565b5b0181905550608260036002600a8110620000d157620000d062000278565b5b01819055506003603581905550600d6000620000ee919062000244565b60d2600d6000600a811062000108576200010762000278565b5b018190555060016036819055506017600062000125919062000244565b61013660176000600a811062000140576200013f62000278565b5b01819055506001603781905550602160006200015d919062000244565b61019a60216000600a811062000178576200017762000278565b5b01819055506001603881905550602b600062000195919062000244565b6101fe602b6000600a8110620001b057620001af62000278565b5b0181905550610208602b6001600a8110620001d057620001cf62000278565b5b0181905550610212602b6002600a8110620001f057620001ef62000278565b5b018190555061021c602b6003600a811062000210576200020f62000278565b5b0181905550610226602b6004600a811062000230576200022f62000278565b5b018190555060056039819055506001905090565b5080600a019062000256919062000259565b50565b5b80821115620002745760008160009055506001016200025a565b5090565b7f4e487b7100000000000000000000000000000000000000000000000000000000600052603260045260246000fd5b614a3980620002b76000396000f3fe608060405234801561001057600080fd5b50600436106107435760003560e01c806382be8f29116103be578063c54bca79116101ff578063e1e40c4011610125578063ee6977d3116100b8578063fb1034a411610087578063fb1034a414611a44578063fc6b134d14611a62578063fd3cde1814611a80578063fec6280414611ab057610743565b8063ee6977d314611984578063f3cf975e146119b4578063f53ce17e146119e4578063fac333ac14611a1457610743565b8063ea66a6f8116100f4578063ea66a6f8146118e8578063eba2105214611906578063eba5be8514611924578063edf740561461195457610743565b8063e1e40c4014611828578063e4d16a8d14611858578063e53de59614611888578063e9d554c4146118b857610743565b8063d0eee3631161019d578063d5c11dfd1161016c578063d5c11dfd1461179e578063d611d6c8146117ce578063ddf7cb82146117ec578063e07c43001461180a57610743565b8063d0eee363146116f0578063d2e117211461170e578063d35aae381461173e578063d367cba51461176e57610743565b8063cc45fcc0116101d9578063cc45fcc014611654578063cee7fc6a14611684578063d089b555146116b4578063d0934f2a146116d257610743565b8063c54bca79146115c4578063c86585f3146115f4578063c9d0f9fd1461162457610743565b80639d5af13f116102e4578063b1c76ef811610282578063b4d0b2a111610251578063b4d0b2a114611528578063b73974a114611558578063b87fc47214611576578063bb24fe8a146115a657610743565b8063b1c76ef81461148c578063b283039c146114aa578063b2cbb59b146114da578063b3cea2171461150a57610743565b8063a1e0f5a5116102be578063a1e0f5a5146113de578063ac9841e61461140e578063acb7bacc1461142c578063b15cb49a1461145c57610743565b80639d5af13f146113725780639e69e3f1146113a25780639f17b0f9146113c057610743565b80638b715f0a1161035c578063966efdbe1161032b578063966efdbe146112d6578063991bef1f1461130657806399b71829146113245780639d2a05e51461135457610743565b80638b715f0a14611216578063921c722b14611246578063926d8615146112765780639508b25f146112a657610743565b8063858c54da11610398578063858c54da1461116857806387f67d8f1461119857806388f3081b146111b65780638a6b5b83146111e657610743565b806382be8f29146110ea57806382e975811461110857806383e2e5e81461113857610743565b806334d98e29116105885780635e9c4741116104ae57806372b1deb51161044c5780637a18ed1d1161041b5780637a18ed1d1461103c5780637b3e87651461105a5780637c3cbe1e1461108a5780637ece009f146110ba57610743565b806372b1deb514610fb25780637445064914610fd057806377bfd76114610fee578063785ffb371461101e57610743565b806368ab0cc11161048857806368ab0cc114610f1657806369569d3014610f345780636a08a9f214610f645780636cf0462514610f8257610743565b80635e9c474114610ebc5780635fdd6d9414610eda57806364355e4e14610ef857610743565b8063472d53ca116105265780634d91a961116104f55780634d91a96114610dfc57806352c2af8814610e2c578063569fd25514610e5c5780635bb14c0514610e8c57610743565b8063472d53ca14610d605780634a90a47614610d7e5780634bfadbac14610dae5780634c6ba98514610dde57610743565b80633c8bce21116105625780633c8bce2114610cb25780633d780ce314610ce25780634595a8bf14610d1257806346982c5b14610d4257610743565b806334d98e2914610c465780633713720e14610c6457806339e4ad8c14610c9457610743565b80631e5cd89c1161066d57806329cbc5b01161060b5780632e8a9e6c116105da5780632e8a9e6c14610b985780632f088c9314610bc8578063301b136214610be6578063339d3faa14610c1657610743565b806329cbc5b014610aea5780632d75ae6c14610b1a5780632e16dbd214610b4a5780632e49cf9b14610b7a57610743565b806322807657116106475780632280765714610a2a57806322a2128b14610a5a578063256ab03614610a8a57806327e9cc5414610aba57610743565b80631e5cd89c1461099a5780631fed49f5146109ca57806320d4c841146109fa57610743565b806309f110b1116106e557806316839d87116106b457806316839d87146108da5780631692231f1461090a5780631abe79731461093a5780631e5af54b1461096a57610743565b806309f110b1146108505780630dc3c493146108805780631003ab9b1461089e578063122b83f9146108bc57610743565b806306e3dcbb1161072157806306e3dcbb146107a25780630715a24a146107d2578063077cfa96146107f05780630964227c1461082057610743565b806301212e2b14610748578063019e9be314610766578063030db44514610784575b600080fd5b610750611ace565b60405161075d919061406e565b60405180910390f35b61076e611adb565b60405161077b91906140a2565b60405180910390f35b61078c611ae1565b60405161079991906140a2565b60405180910390f35b6107bc60048036038101906107b791906140ee565b611ae7565b6040516107c9919061406e565b60405180910390f35b6107da611aff565b6040516107e791906140a2565b60405180910390f35b61080a600480360381019061080591906140ee565b611b04565b60405161081791906140a2565b60405180910390f35b61083a6004803603810190610835919061411b565b611b1f565b60405161084791906140a2565b60405180910390f35b61086a600480360381019061086591906140ee565b611b50565b60405161087791906140a2565b60405180910390f35b610888611b6f565b60405161089591906140a2565b60405180910390f35b6108a6611b75565b6040516108b3919061406e565b60405180910390f35b6108c4611b82565b6040516108d191906140a2565b60405180910390f35b6108f460048036038101906108ef919061415b565b611b88565b604051610901919061406e565b60405180910390f35b610924600480360381019061091f919061411b565b611c3c565b604051610931919061406e565b60405180910390f35b610954600480360381019061094f919061411b565b611d1d565b604051610961919061406e565b60405180910390f35b610984600480360381019061097f91906140ee565b611d6a565b604051610991919061406e565b60405180910390f35b6109b460048036038101906109af91906140ee565b611e8f565b6040516109c1919061406e565b60405180910390f35b6109e460048036038101906109df919061411b565b611ea6565b6040516109f1919061406e565b60405180910390f35b610a146004803603810190610a0f919061411b565b611f0f565b604051610a21919061406e565b60405180910390f35b610a446004803603810190610a3f919061411b565b611f66565b604051610a51919061406e565b60405180910390f35b610a746004803603810190610a6f91906140ee565b611f98565b604051610a81919061406e565b60405180910390f35b610aa46004803603810190610a9f919061411b565b612109565b604051610ab1919061406e565b60405180910390f35b610ad46004803603810190610acf91906140ee565b612178565b604051610ae1919061406e565b60405180910390f35b610b046004803603810190610aff919061415b565b6121fb565b604051610b11919061406e565b60405180910390f35b610b346004803603810190610b2f91906140ee565b612230565b604051610b419190614247565b60405180910390f35b610b646004803603810190610b5f91906140ee565b6123f1565b604051610b7191906140a2565b60405180910390f35b610b8261240c565b604051610b8f91906140a2565b60405180910390f35b610bb26004803603810190610bad919061411b565b612411565b604051610bbf91906140a2565b60405180910390f35b610bd061248f565b604051610bdd91906140a2565b60405180910390f35b610c006004803603810190610bfb919061415b565b612495565b604051610c0d919061406e565b60405180910390f35b610c306004803603810190610c2b91906140ee565b612502565b604051610c3d919061406e565b60405180910390f35b610c4e61251a565b604051610c5b919061406e565b60405180910390f35b610c7e6004803603810190610c79919061411b565b612531565b604051610c8b91906140a2565b60405180910390f35b610c9c61255f565b604051610ca991906140a2565b60405180910390f35b610ccc6004803603810190610cc7919061411b565b612565565b604051610cd991906140a2565b60405180910390f35b610cfc6004803603810190610cf791906140ee565b61258d565b604051610d0991906140a2565b60405180910390f35b610d2c6004803603810190610d27919061411b565b6125a8565b604051610d39919061406e565b60405180910390f35b610d4a612687565b604051610d5791906140a2565b60405180910390f35b610d6861268d565b604051610d75919061406e565b60405180910390f35b610d986004803603810190610d93919061411b565b6126a4565b604051610da5919061406e565b60405180910390f35b610dc86004803603810190610dc391906140ee565b6126c7565b604051610dd5919061406e565b60405180910390f35b610de6612713565b604051610df391906140a2565b60405180910390f35b610e166004803603810190610e1191906140ee565b612719565b604051610e2391906140a2565b60405180910390f35b610e466004803603810190610e4191906140ee565b612734565b604051610e53919061406e565b60405180910390f35b610e766004803603810190610e7191906140ee565b6127be565b604051610e83919061406e565b60405180910390f35b610ea66004803603810190610ea1919061411b565b6127d8565b604051610eb391906140a2565b60405180910390f35b610ec4612856565b604051610ed1919061406e565b60405180910390f35b610ee2612863565b604051610eef919061406e565b60405180910390f35b610f00612876565b604051610f0d919061406e565b60405180910390f35b610f1e61293c565b604051610f2b91906140a2565b60405180910390f35b610f4e6004803603810190610f4991906140ee565b612971565b604051610f5b919061406e565b60405180910390f35b610f6c6129b0565b604051610f7991906140a2565b60405180910390f35b610f9c6004803603810190610f9791906140ee565b6129b5565b604051610fa991906140a2565b60405180910390f35b610fba6129d0565b604051610fc791906140a2565b60405180910390f35b610fd86129d5565b604051610fe5919061406e565b60405180910390f35b611008600480360381019061100391906140ee565b6129e2565b604051611015919061406e565b60405180910390f35b611026612a6c565b60405161103391906140a2565b60405180910390f35b611044612a71565b604051611051919061406e565b60405180910390f35b611074600480360381019061106f919061411b565b612a7e565b60405161108191906140a2565b60405180910390f35b6110a4600480360381019061109f91906140ee565b612aaf565b6040516110b191906140a2565b60405180910390f35b6110d460048036038101906110cf919061415b565b612b04565b6040516110e1919061406e565b60405180910390f35b6110f2612bb8565b6040516110ff919061406e565b60405180910390f35b611122600480360381019061111d91906140ee565b612c94565b60405161112f919061406e565b60405180910390f35b611152600480360381019061114d91906140ee565b612d24565b60405161115f919061406e565b60405180910390f35b611182600480360381019061117d91906140ee565b612d63565b60405161118f919061406e565b60405180910390f35b6111a0612daf565b6040516111ad91906140a2565b60405180910390f35b6111d060048036038101906111cb91906140ee565b612db4565b6040516111dd91906140a2565b60405180910390f35b61120060048036038101906111fb919061411b565b612dee565b60405161120d919061406e565b60405180910390f35b611230600480360381019061122b91906140ee565b612e3b565b60405161123d9190614247565b60405180910390f35b611260600480360381019061125b919061411b565b613012565b60405161126d919061406e565b60405180910390f35b611290600480360381019061128b91906140ee565b61302a565b60405161129d919061406e565b60405180910390f35b6112c060048036038101906112bb91906140ee565b613042565b6040516112cd919061406e565b60405180910390f35b6112f060048036038101906112eb91906140ee565b613081565b6040516112fd919061406e565b60405180910390f35b61130e6130a4565b60405161131b91906140a2565b60405180910390f35b61133e6004803603810190611339919061411b565b6130a9565b60405161134b91906140a2565b60405180910390f35b61135c6130ce565b604051611369919061406e565b60405180910390f35b61138c600480360381019061138791906140ee565b6130da565b604051611399919061406e565b60405180910390f35b6113aa6130ef565b6040516113b7919061406e565b60405180910390f35b6113c8613127565b6040516113d591906140a2565b60405180910390f35b6113f860048036038101906113f391906140ee565b61312c565b604051611405919061406e565b60405180910390f35b6114166132c6565b60405161142391906140a2565b60405180910390f35b6114466004803603810190611441919061411b565b6132cc565b604051611453919061406e565b60405180910390f35b6114766004803603810190611471919061411b565b613393565b604051611483919061406e565b60405180910390f35b6114946133c6565b6040516114a1919061406e565b60405180910390f35b6114c460048036038101906114bf919061411b565b6133dd565b6040516114d1919061406e565b60405180910390f35b6114f460048036038101906114ef91906140ee565b6133fd565b604051611501919061406e565b60405180910390f35b611512613523565b60405161151f91906140a2565b60405180910390f35b611542600480360381019061153d919061411b565b613529565b60405161154f919061406e565b60405180910390f35b61156061357a565b60405161156d91906140a2565b60405180910390f35b611590600480360381019061158b91906140ee565b61357f565b60405161159d919061406e565b60405180910390f35b6115ae6135a2565b6040516115bb91906140a2565b60405180910390f35b6115de60048036038101906115d991906140ee565b6135a8565b6040516115eb919061406e565b60405180910390f35b61160e6004803603810190611609919061411b565b6135e7565b60405161161b919061406e565b60405180910390f35b61163e600480360381019061163991906140ee565b61368c565b60405161164b919061406e565b60405180910390f35b61166e6004803603810190611669919061411b565b6136a6565b60405161167b919061406e565b60405180910390f35b61169e600480360381019061169991906140ee565b6136c9565b6040516116ab91906140a2565b60405180910390f35b6116bc613773565b6040516116c991906140a2565b60405180910390f35b6116da613779565b6040516116e791906140a2565b60405180910390f35b6116f861377f565b60405161170591906140a2565b60405180910390f35b611728600480360381019061172391906140ee565b613784565b604051611735919061406e565b60405180910390f35b611758600480360381019061175391906140ee565b6137c3565b604051611765919061406e565b60405180910390f35b61178860048036038101906117839190614269565b6137eb565b604051611795919061406e565b60405180910390f35b6117b860048036038101906117b391906140ee565b61381b565b6040516117c591906140a2565b60405180910390f35b6117d6613849565b6040516117e39190614247565b60405180910390f35b6117f46139f9565b60405161180191906140a2565b60405180910390f35b6118126139ff565b60405161181f919061406e565b60405180910390f35b611842600480360381019061183d91906140ee565b613bb1565b60405161184f919061406e565b60405180910390f35b611872600480360381019061186d91906140ee565b613c1c565b60405161187f919061406e565b60405180910390f35b6118a2600480360381019061189d919061411b565b613c3f565b6040516118af91906140a2565b60405180910390f35b6118d260048036038101906118cd919061415b565b613c67565b6040516118df919061406e565b60405180910390f35b6118f0613d18565b6040516118fd91906140a2565b60405180910390f35b61190e613d1d565b60405161191b91906140a2565b60405180910390f35b61193e600480360381019061193991906140ee565b613d22565b60405161194b919061406e565b60405180910390f35b61196e6004803603810190611969919061415b565b613d3c565b60405161197b919061406e565b60405180910390f35b61199e600480360381019061199991906140ee565b613da9565b6040516119ab91906140a2565b60405180910390f35b6119ce60048036038101906119c991906140ee565b613dbe565b6040516119db919061406e565b60405180910390f35b6119fe60048036038101906119f991906142e4565b613dfd565b604051611a0b919061406e565b60405180910390f35b611a2e6004803603810190611a2991906140ee565b613e47565b604051611a3b91906140a2565b60405180910390f35b611a4c613e62565b604051611a5991906140a2565b60405180910390f35b611a6a613e67565b604051611a77919061406e565b60405180910390f35b611a9a6004803603810190611a95919061411b565b613e74565b604051611aa7919061406e565b60405180910390f35b611ab8613ea6565b604051611ac591906140a2565b60405180910390f35b6000600f60495410905090565b60495481565b61021281565b60006003611af783610208612531565b149050919050565b600081565b601781600a8110611b1457600080fd5b016000915090505481565b60006001600084815260200190815260200160002082600e8110611b4657611b4561434b565b5b0154905092915050565b6000603a82600f8110611b6657611b6561434b565b5b01549050919050565b60385481565b6000600a60375410905090565b61019a81565b6000806001600086815260200190815260200160002084600e8110611bb057611baf61434b565b5b015490506001600086815260200190815260200160002083600e8110611bd957611bd861434b565b5b01546001600087815260200190815260200160002085600e8110611c0057611bff61434b565b5b0181905550806001600087815260200190815260200160002084600e8110611c2b57611c2a61434b565b5b018190555060019150509392505050565b60006002600084815260200190815260200160002060016002600086815260200190815260200160002050600e611c7391906143a9565b600e8110611c8457611c8361434b565b5b01546002600085815260200190815260200160002083600e8110611cab57611caa61434b565b5b018190555060006002600085815260200190815260200160002060016002600087815260200190815260200160002050600e611ce791906143a9565b600e8110611cf857611cf761434b565b5b0181905550611d08836078613e74565b50611d12836133fd565b506001905092915050565b60008160026000858152602001908152602001600020611d3e856078612531565b600e8110611d4f57611d4e61434b565b5b0181905550611d5f836078611f66565b506001905092915050565b600080600090506000600180600086815260200190815260200160002050600e611d9491906143a9565b90505b80821015611e845760006001600086815260200190815260200160002083600e8110611dc657611dc561434b565b5b01541115611de1578180611dd9906143dd565b925050611e7f565b60006001600086815260200190815260200160002083600e8110611e0857611e0761434b565b5b0154148015611e3d575060006001600086815260200190815260200160002082600e8110611e3957611e3861434b565b5b0154145b15611e55578080611e4d90614425565b915050611e7e565b611e60848383611b88565b508180611e6c906143dd565b9250508080611e7a90614425565b9150505b5b611d97565b600192505050919050565b600080611e9e8361019a612531565b119050919050565b6000611eb1836129e2565b50611ebb83612734565b50600160008481526020019081526020016000206000611edb9190614010565b600260008481526020019081526020016000206000611efa9190614010565b611f0483836133dd565b506001905092915050565b600080611f1e84610208612531565b905060018103611f3857611f328385612dee565b50611f4d565b60028103611f4c57611f4a8385611d1d565b505b5b611f5a8461019a856121fb565b50600191505092915050565b600080611f738484612531565b9050611f8c8484600184611f87919061444e565b6121fb565b50600191505092915050565b600080611fa6836082612531565b90506000611fb68461021c612531565b90506000611fc685610226612531565b90506000831480611fd75750600b82105b80611fe25750600b81105b15611ff35760009350505050612104565b600061200086606e612531565b9050600080600080600080600090505b868110156120c05761202d6120258d83611b1f565b610226612531565b935061204461203c8d83611b1f565b61021c612531565b925061205a6120538d83611b1f565b60d2612531565b9150600b84108061206b5750600b83105b8061207557508982145b6120ad578982111561209457858061208c906143dd565b9650506120ac565b898210156120ab5784806120a7906143dd565b9550505b5b5b80806120b8906143dd565b915050612010565b50838511156120dd576120d78b610136600a612495565b506120f6565b838510156120f5576120f38b610136600b612495565b505b5b600199505050505050505050505b919050565b600080603a84600f81106121205761211f61434b565b5b01549050603a83600f81106121385761213761434b565b5b0154603a85600f811061214e5761214d61434b565b5b018190555080603a84600f81106121685761216761434b565b5b0181905550600191505092915050565b60008061218483612aaf565b9050600061219484610208612531565b905060006121a48561019a612531565b90506000808211156121e057600183036121c9576121c28287612411565b90506121df565b600283036121de576121db82876127d8565b90505b5b5b6121ed86858585856137eb565b506001945050505050919050565b600081600080868152602001908152602001600020600085815260200190815260200160002081905550600190509392505050565b6060600061224083610208612531565b90506000612258612253856101fe612531565b613eb0565b61226c61226786610208612531565b613eb0565b61228061227b87610212612531565b613eb0565b61229461228f8861021c612531565b613eb0565b6122a86122a389610226612531565b613eb0565b6040516020016122bc95949392919061459e565b60405160208183030381529060405290506003820361233857806122e96122e486606e612531565b613eb0565b6122fc6122f7876078612531565b613eb0565b61230f61230a886082612531565b613eb0565b60405160200161232294939291906146a6565b60405160208183030381529060405290506123e7565b6001820361239057806123556123508661019a612531565b613eb0565b6123686123638760d2612531565b613eb0565b60405160200161237a9392919061475d565b60405160208183030381529060405290506123e6565b600282036123e557806123ad6123a88661019a612531565b613eb0565b6123c16123bc87610136612531565b613eb0565b6040516020016123d3939291906147d2565b60405160208183030381529060405290505b5b5b8092505050919050565b602b81600a811061240157600080fd5b016000915090505481565b607881565b60008061241f84606e612531565b905060005b81811015612476576001600086815260200190815260200160002081600e81106124515761245061434b565b5b01548403612463578092505050612489565b808061246e906143dd565b915050612424565b506001600f61248591906143a9565b9150505b92915050565b61013681565b6000806124a3856078612531565b905060005b818110156124f5576124e16002600088815260200190815260200160002082600e81106124d8576124d761434b565b5b015486866121fb565b5080806124ed906143dd565b9150506124a8565b5060019150509392505050565b6000600261251283610208612531565b149050919050565b6000612529610226600b613529565b506001905090565b6000806000848152602001908152602001600020600083815260200190815260200160002054905092915050565b604a5481565b600160205281600052604060002081600e811061258157600080fd5b01600091509150505481565b600381600a811061259d57600080fd5b016000915090505481565b600060016000848152602001908152602001600020600180600086815260200190815260200160002050600e6125de91906143a9565b600e81106125ef576125ee61434b565b5b01546001600085815260200190815260200160002083600e81106126165761261561434b565b5b0181905550600060016000858152602001908152602001600020600180600087815260200190815260200160002050600e61265191906143a9565b600e81106126625761266161434b565b5b018190555061267283606e613e74565b5061267c83611d6a565b506001905092915050565b60365481565b6000604b60009054906101000a900460ff16905090565b60008082101580156126bf57506126bc836078612531565b82105b905092915050565b60006126d78261021c600a6121fb565b5060036126e683610208612531565b0361270a576126f98261021c600a613d3c565b506127088261021c600a612495565b505b60019050919050565b60355481565b602181600a811061272957600080fd5b016000915090505481565b60005b6000612744836078612531565b11156127b5576127af600260008481526020019081526020016000206000600e81106127735761277261434b565b5b01546127a5600260008681526020019081526020016000206000600e811061279e5761279d61434b565b5b0154612aaf565b60028560006137eb565b50612737565b60019050919050565b60006127ce8261021c600b6121fb565b5060019050919050565b6000806127e6846078612531565b905060005b8181101561283d576002600086815260200190815260200160002081600e81106128185761281761434b565b5b0154840361282a578092505050612850565b8080612835906143dd565b9150506127eb565b506001600f61284c91906143a9565b9150505b92915050565b6000600a60385410905090565b604b60009054906101000a900460ff1681565b600080600080600080600160495461288e91906143a9565b90505b60008110612930576128a281611b50565b94506128b085610208612531565b93506128be8561019a612531565b9250600384036128d65760008103156129305761291d565b600184036128ef576128e88386612411565b9150612905565b600284036129045761290183866127d8565b91505b5b61291285828686866137eb565b506000810315612930575b808061292890614425565b915050612891565b50600194505050505090565b600080604a5490505b8080612950906143dd565b915050600f61295e82612aaf565b106129455780604a819055508091505090565b6000816017603754600a811061298a5761298961434b565b5b0181905550603760008154809291906129a2906143dd565b919050555060019050919050565b600a81565b600d81600a81106129c557600080fd5b016000915090505481565b600181565b6000600a60355410905090565b60005b60006129f283606e612531565b1115612a6357612a5d600160008481526020019081526020016000206000600e8110612a2157612a2061434b565b5b0154612a53600160008681526020019081526020016000206000600e8110612a4c57612a4b61434b565b5b0154612aaf565b60018560006137eb565b506129e5565b60019050919050565b608281565b6000600a60395410905090565b60006002600084815260200190815260200160002082600e8110612aa557612aa461434b565b5b0154905092915050565b600080600090505b604954811015612af957603a81600f8110612ad557612ad461434b565b5b01548303612ae65780915050612aff565b8080612af1906143dd565b915050612ab7565b50600f90505b919050565b6000806002600086815260200190815260200160002084600e8110612b2c57612b2b61434b565b5b015490506002600086815260200190815260200160002083600e8110612b5557612b5461434b565b5b01546002600087815260200190815260200160002085600e8110612b7c57612b7b61434b565b5b0181905550806002600087815260200190815260200160002084600e8110612ba757612ba661434b565b5b018190555060019150509392505050565b6000806000905060006001600f612bcf91906143a9565b90505b80821015612c8b576000603a83600f8110612bf057612bef61434b565b5b01541115612c0b578180612c03906143dd565b925050612c86565b6000603a83600f8110612c2157612c2061434b565b5b0154148015612c4557506000603a82600f8110612c4157612c4061434b565b5b0154145b15612c5d578080612c5590614425565b915050612c85565b612c678282612109565b508180612c73906143dd565b9250508080612c8190614425565b9150505b5b612bd2565b60019250505090565b6000603a6001600f612ca691906143a9565b600f8110612cb757612cb661434b565b5b0154603a83600f8110612ccd57612ccc61434b565b5b01819055506000603a6001600f612ce491906143a9565b600f8110612cf557612cf461434b565b5b018190555060496000815480929190612d0d90614425565b9190505550612d1a612bb8565b5060019050919050565b6000816021603854600a8110612d3d57612d3c61434b565b5b018190555060386000815480929190612d55906143dd565b919050555060019050919050565b6000612d7382610226600a6121fb565b506003612d8283610208612531565b03612da657612d9582610226600a613d3c565b50612da482610226600a612495565b505b60019050919050565b600081565b600080612dc2836078612531565b03612dd05760009050612de9565b612de6612dde836000612a7e565b610136612531565b90505b919050565b60008160016000858152602001908152602001600020612e0f85606e612531565b600e8110612e2057612e1f61434b565b5b0181905550612e3083606e611f66565b506001905092915050565b60606000612e4a83606e612531565b90506000612e59846078612531565b905060006040518060400160405280600281526020017f533a000000000000000000000000000000000000000000000000000000000000815250905060005b83811015612f3c5781612ed06001600089815260200190815260200160002083600e8110612ec957612ec861434b565b5b0154613eb0565b604051602001612ee1929190614821565b6040516020818303038152906040529150600184612eff91906143a9565b811015612f295781604051602001612f17919061486b565b60405160208183030381529060405291505b8080612f34906143dd565b915050612e98565b5080604051602001612f4e91906148b7565b604051602081830303815290604052905060005b828110156130065781612f9a6002600089815260200190815260200160002083600e8110612f9357612f9261434b565b5b0154613eb0565b604051602001612fab929190614821565b6040516020818303038152906040529150600183612fc991906143a9565b811015612ff35781604051602001612fe1919061486b565b60405160208183030381529060405291505b8080612ffe906143dd565b915050612f62565b50809350505050919050565b6000826130218361019a612531565b14905092915050565b6000600161303a83610208612531565b149050919050565b600081602b603954600a811061305b5761305a61434b565b5b018190555060396000815480929190613073906143dd565b919050555060019050919050565b60006001600f61309191906143a9565b61309c83606e612531565b109050919050565b600281565b6000602052816000526040600020602052806000526040600020600091509150505481565b60008060495411905090565b6000600f6130e783612aaf565b109050919050565b60006130f9612876565b505b600060495411156131205761311a6131136000611b50565b6000611ea6565b506130fb565b6001905090565b600a81565b60008061313b83610208612531565b90506003810361318b5760005b6035548110156131855761317184600383600a811061316a5761316961434b565b5b0154613393565b50808061317d906143dd565b915050613148565b50613225565b600181036131d95760005b6036548110156131d3576131bf84600d83600a81106131b8576131b761434b565b5b0154613393565b5080806131cb906143dd565b915050613196565b50613224565b600281036132235760005b6037548110156132215761320d84601783600a81106132065761320561434b565b5b0154613393565b508080613219906143dd565b9150506131e4565b505b5b5b60018114806132345750600281145b1561327b5760005b6038548110156132795761326584602183600a811061325e5761325d61434b565b5b0154613393565b508080613271906143dd565b91505061323c565b505b60005b6039548110156132bb576132a784602b83600a81106132a05761329f61434b565b5b0154613393565b5080806132b3906143dd565b91505061327e565b506001915050919050565b61021c81565b6000806132db84610208612531565b905060018103613301576132fb8360d26132f68760d2612531565b6121fb565b50613324565b60028103613323576133218361013661331c87610136612531565b6121fb565b505b5b61333c8361019a6133378761019a612531565b6121fb565b506133558361021261335087610212612531565b6121fb565b5061336e8361021c6133698761021c612531565b6121fb565b506133878361022661338287610226612531565b6121fb565b50600191505092915050565b60008060008481526020019081526020016000206000838152602001908152602001600020600090556001905092915050565b60006133d5610226600a613529565b506001905090565b60006133e88361312c565b506133f282612c94565b506001905092915050565b60008060009050600060016002600086815260200190815260200160002050600e61342891906143a9565b90505b808210156135185760006002600086815260200190815260200160002083600e811061345a5761345961434b565b5b0154111561347557818061346d906143dd565b925050613513565b60006002600086815260200190815260200160002083600e811061349c5761349b61434b565b5b01541480156134d1575060006002600086815260200190815260200160002082600e81106134cd576134cc61434b565b5b0154145b156134e95780806134e190614425565b915050613512565b6134f4848383612b04565b508180613500906143dd565b925050808061350e90614425565b9150505b5b61342b565b600192505050919050565b6101fe81565b600080600090505b60495481101561356f5761355b603a82600f81106135525761355161434b565b5b015485856121fb565b508080613567906143dd565b915050613531565b506001905092915050565b600b81565b60008061358b83612aaf565b90506135978382611ea6565b506001915050919050565b61020881565b600081600d603654600a81106135c1576135c061434b565b5b0181905550603660008154809291906135d9906143dd565b919050555060019050919050565b60006135f6836101fe856121fb565b5061360483610208846121fb565b506136138361021260006121fb565b506136228361021c600a6121fb565b5061363183610226600a6121fb565b506003820361364d5761364783608260006121fb565b50613682565b60018203613668576136628360d260006121fb565b50613681565b600282036136805761367e83610136600a6121fb565b505b5b5b6001905092915050565b600080821015801561369f575060495482105b9050919050565b60008082101580156136c157506136be83606e612531565b82105b905092915050565b6000806136d88361019a612531565b905060006136e884610208612531565b9050600080831115613724576001820361370d576137068386612411565b9050613723565b600282036137225761371f83866127d8565b90505b5b5b600061372f8361381b565b905061373b86826132cc565b5060008411156137515761374f8185611f0f565b505b6137668661375e88612aaf565b8587866137eb565b5080945050505050919050565b60395481565b60375481565b606e81565b6000816003603554600a811061379d5761379c61434b565b5b0181905550603560008154809291906137b5906143dd565b919050555060019050919050565b6000806137d283610208612531565b905060018114806137e35750600281145b915050919050565b6000808311156138035761380186858486613dfd565b505b61380d86866133dd565b506001905095945050505050565b600061382561293c565b50613831604a54613dbe565b5061383e604a54836135e7565b50604a549050919050565b606060006040518060200160405280600081525090506000606060005b6049548110156139ef57613891603a82600f81106138875761388661434b565b5b0154610208612531565b9250600383036138d8576040518060400160405280600281526020017f434e0000000000000000000000000000000000000000000000000000000000008152509150613960565b6001830361391d576040518060400160405280600181526020017f5300000000000000000000000000000000000000000000000000000000000000815250915061395f565b6002830361395e576040518060400160405280600181526020017f410000000000000000000000000000000000000000000000000000000000000081525091505b5b5b8361397f603a83600f81106139785761397761434b565b5b0154613eb0565b8360405160200161399293929190614903565b604051602081830303815290604052935060016049546139b291906143a9565b8110156139dc57836040516020016139ca919061486b565b60405160208183030381529060405293505b80806139e7906143dd565b915050613866565b5082935050505090565b61022681565b600060036000613a0f9190614023565b606e60036000600a8110613a2657613a2561434b565b5b0181905550607860036001600a8110613a4257613a4161434b565b5b0181905550608260036002600a8110613a5e57613a5d61434b565b5b01819055506003603581905550600d6000613a799190614023565b60d2600d6000600a8110613a9057613a8f61434b565b5b0181905550600160368190555060176000613aab9190614023565b61013660176000600a8110613ac357613ac261434b565b5b0181905550600160378190555060216000613ade9190614023565b61019a60216000600a8110613af657613af561434b565b5b01819055506001603881905550602b6000613b119190614023565b6101fe602b6000600a8110613b2957613b2861434b565b5b0181905550610208602b6001600a8110613b4657613b4561434b565b5b0181905550610212602b6002600a8110613b6357613b6261434b565b5b018190555061021c602b6003600a8110613b8057613b7f61434b565b5b0181905550610226602b6004600a8110613b9d57613b9c61434b565b5b018190555060056039819055506001905090565b600080613bc083610208612531565b90506000613bd08461019a612531565b9050600060018303613bed57613be68286612411565b9050613c03565b60028303613c0257613bff82866127d8565b90505b5b613c0f85848385613dfd565b5060019350505050919050565b60006001600f613c2c91906143a9565b613c37836078612531565b109050919050565b600260205281600052604060002081600e8110613c5b57600080fd5b01600091509150505481565b600080613c75856082612531565b90506000613c858661021c612531565b90506000613c9587610226612531565b90506000613ca58761021c612531565b90506000613cb588610226612531565b90506000851480613cc65750600b84105b80613cd15750600b83105b80613cdc5750600b82105b80613ce75750600b81105b15613cfa57600095505050505050613d11565b613d068860d2896121fb565b506001955050505050505b9392505050565b60d281565b600f81565b6000613d3282610226600b6121fb565b5060019050919050565b600080613d4a85606e612531565b905060005b81811015613d9c57613d886001600088815260200190815260200160002082600e8110613d7f57613d7e61434b565b5b015486866121fb565b508080613d94906143dd565b915050613d4f565b5060019150509392505050565b6000613db782610212612531565b9050919050565b600081603a604954600f8110613dd757613dd661434b565b5b018190555060496000815480929190613def906143dd565b919050555060019050919050565b600060018403613e1757613e1182846125a8565b50613e2c565b60028403613e2b57613e298284611c3c565b505b5b613e3a8561019a60006121fb565b5060019050949350505050565b603a81600f8110613e5757600080fd5b016000915090505481565b600381565b6000600a60365410905090565b600080613e818484612531565b9050613e9a8484600184613e9591906143a9565b6121fb565b50600191505092915050565b6000604a54905090565b606060008203613ef7576040518060400160405280600181526020017f3000000000000000000000000000000000000000000000000000000000000000815250905061400b565b600082905060005b60008214613f29578080613f12906143dd565b915050600a82613f229190614972565b9150613eff565b60008167ffffffffffffffff811115613f4557613f446149a3565b5b6040519080825280601f01601f191660200182016040528015613f775781602001600182028036833780820191505090505b5090505b6000851461400457600182613f9091906143a9565b9150600a85613f9f91906149d2565b6030613fab919061444e565b60f81b818381518110613fc157613fc061434b565b5b60200101907effffffffffffffffffffffffffffffffffffffffffffffffffffffffffffff1916908160001a905350600a85613ffd9190614972565b9450613f7b565b8093505050505b919050565b5080600e01906140209190614036565b50565b5080600a01906140339190614036565b50565b5b8082111561404f576000816000905550600101614037565b5090565b60008115159050919050565b61406881614053565b82525050565b6000602082019050614083600083018461405f565b92915050565b6000819050919050565b61409c81614089565b82525050565b60006020820190506140b76000830184614093565b92915050565b600080fd5b6140cb81614089565b81146140d657600080fd5b50565b6000813590506140e8816140c2565b92915050565b600060208284031215614104576141036140bd565b5b6000614112848285016140d9565b91505092915050565b60008060408385031215614132576141316140bd565b5b6000614140858286016140d9565b9250506020614151858286016140d9565b9150509250929050565b600080600060608486031215614174576141736140bd565b5b6000614182868287016140d9565b9350506020614193868287016140d9565b92505060406141a4868287016140d9565b9150509250925092565b600081519050919050565b600082825260208201905092915050565b60005b838110156141e85780820151818401526020810190506141cd565b838111156141f7576000848401525b50505050565b6000601f19601f8301169050919050565b6000614219826141ae565b61422381856141b9565b93506142338185602086016141ca565b61423c816141fd565b840191505092915050565b60006020820190508181036000830152614261818461420e565b905092915050565b600080600080600060a08688031215614285576142846140bd565b5b6000614293888289016140d9565b95505060206142a4888289016140d9565b94505060406142b5888289016140d9565b93505060606142c6888289016140d9565b92505060806142d7888289016140d9565b9150509295509295909350565b600080600080608085870312156142fe576142fd6140bd565b5b600061430c878288016140d9565b945050602061431d878288016140d9565b935050604061432e878288016140d9565b925050606061433f878288016140d9565b91505092959194509250565b7f4e487b7100000000000000000000000000000000000000000000000000000000600052603260045260246000fd5b7f4e487b7100000000000000000000000000000000000000000000000000000000600052601160045260246000fd5b60006143b482614089565b91506143bf83614089565b9250828210156143d2576143d161437a565b5b828203905092915050565b60006143e882614089565b91507fffffffffffffffffffffffffffffffffffffffffffffffffffffffffffffffff820361441a5761441961437a565b5b600182019050919050565b600061443082614089565b9150600082036144435761444261437a565b5b600182039050919050565b600061445982614089565b915061446483614089565b9250827fffffffffffffffffffffffffffffffffffffffffffffffffffffffffffffffff038211156144995761449861437a565b5b828201905092915050565b7f49443a0000000000000000000000000000000000000000000000000000000000815250565b600081905092915050565b60006144e0826141ae565b6144ea81856144ca565b93506144fa8185602086016141ca565b80840191505092915050565b7f7c545950453a0000000000000000000000000000000000000000000000000000815250565b7f7c5055424c49435f4b45593a0000000000000000000000000000000000000000815250565b7f7c5045524d495353494f4e3a0000000000000000000000000000000000000000815250565b7f7c4f4e5f4f46465f5354415455533a0000000000000000000000000000000000815250565b60006145a9826144a4565b6003820191506145b982886144d5565b91506145c482614506565b6006820191506145d482876144d5565b91506145df8261452c565b600c820191506145ef82866144d5565b91506145fa82614552565b600c8201915061460a82856144d5565b915061461582614578565b600f8201915061462582846144d5565b91508190509695505050505050565b7f7c414d4f554e545f53454e534f52533a00000000000000000000000000000000815250565b7f7c414d4f554e545f4143545541544f52533a0000000000000000000000000000815250565b7f7c5448524553484f4c443a000000000000000000000000000000000000000000815250565b60006146b282876144d5565b91506146bd82614634565b6010820191506146cd82866144d5565b91506146d88261465a565b6012820191506146e882856144d5565b91506146f382614680565b600b8201915061470382846144d5565b915081905095945050505050565b7f7c504152454e543a000000000000000000000000000000000000000000000000815250565b7f7c4c4153545f52454144494e473a000000000000000000000000000000000000815250565b600061476982866144d5565b915061477482614711565b60088201915061478482856144d5565b915061478f82614737565b600e8201915061479f82846144d5565b9150819050949350505050565b7f7c4143545f434f4d4d414e443a00000000000000000000000000000000000000815250565b60006147de82866144d5565b91506147e982614711565b6008820191506147f982856144d5565b9150614804826147ac565b600d8201915061481482846144d5565b9150819050949350505050565b600061482d82856144d5565b915061483982846144d5565b91508190509392505050565b7f2c00000000000000000000000000000000000000000000000000000000000000815250565b600061487782846144d5565b915061488282614845565b60018201915081905092915050565b7f7c413a0000000000000000000000000000000000000000000000000000000000815250565b60006148c382846144d5565b91506148ce82614891565b60038201915081905092915050565b7f3a00000000000000000000000000000000000000000000000000000000000000815250565b600061490f82866144d5565b915061491b82856144d5565b9150614926826148dd565b60018201915061493682846144d5565b9150819050949350505050565b7f4e487b7100000000000000000000000000000000000000000000000000000000600052601260045260246000fd5b600061497d82614089565b915061498883614089565b92508261499857614997614943565b5b828204905092915050565b7f4e487b7100000000000000000000000000000000000000000000000000000000600052604160045260246000fd5b60006149dd82614089565b91506149e883614089565b9250826149f8576149f7614943565b5b82820690509291505056fea26469706673582212206609809ece30f9160ad72c3e256e35fc0b789963e463ce49e87e00a108c417f464736f6c634300080d0033",
  "immutableReferences": {},
  "source": "// SPDX-License-Identifier: GPL-3.0\n\npragma solidity >=0.8.12 <0.9.0;\n\nimport \"@openzeppelin/contracts/utils/Strings.sol\";\n//import \"./BIoTStore.sol\";\n\n/**\n * @title BIoTMgmt\n * @dev BIoT management functions for my master's thesis's PoC.\n * @custom:dev-run-script ./scripts/deploy_with_ethers.ts\n*/\n\n//IMPORTANTE: Los requires estn comentados slo para que el tamao sea\n//menor al lmite de 24576 bytes de spurious dragon.\n//Entonces muchos wrappers que noms meten requires se volvieron pointless\n//y estn todos comentados porque ni se van a usar...\n\n/*ERROR CODES:\n    DDE: device doesn't exist\n    NCN: device is not compute node\n    NSN: device is not sensor\n    NAC: device is not actuator\n    CDD: can't delete device\n    NCH: device is not child of a CN\n    HPA: device already has a parent CN\n    SDF: new sensor doesn't fit\n    ADF: new actuator doesn't fit\n    DDF: new device doesn't fit\n    NKD: no known devices\n    KCN: key limit reached for CNs\n    KSN: key limit reached for sensors\n    KAC: key limit reached for actuators\n    KST: key limit reached for satellites\n    KDV: key limit reached for all\n*/\n\n//JAHALLA\ncontract BIoTMgmt {\n\n    //---------------------------------------------------------------------------------------------------------------------------------------------\n    //---CONSTANTES--------------------------------------------------------------------------------------------------------------------------------\n\n    //-----------------------------------------------------------------\n    //constantes auxiliares--------------------------------------------\n\n    //tipos de dispositivos\n    uint public constant SENSOR            = 1;\n    uint public constant ACTUATOR          = 2;\n    uint public constant COMPUTE_NODE      = 3;\n\n    //estados de los actuadores y permisos\n    uint public constant HIGH              = 11;\n    uint public constant LOW               = 10; //no es cero para no confundirse con un valor default\n\n    //valores default preestablecidos\n    uint public constant DEFAULT_ID        = 0; //idntico al ID de un dispositivo que no existe en devices y en ids\n    uint public constant DEFAULT_VALUE     = 0; //idntico al value de una key que no existe en un dispositivo\n\n    //lmites globales\n    uint public constant DEVICE_AMOUNT_MAX = 15; //cantidad mxima de dispositivos soportada (15 para testear)\n    uint public constant CONFIG_VARS_MAX   = 10; //cantidad mxima de key-value pairs de config soportada (10 para testear)\n\n    //-----------------------------------------------------------------\n    //constantes de config para los dispositivos-----------------------\n    //son keys usadas en key-values, entonces--------------------------\n    //NO deben haber dos con valores iguales!-------------------------\n\n    //constantes para los compute nodes\n    uint public constant AMOUNT_SENSORS   = 110; //cantidad de sensores asociados al CN\n    uint public constant AMOUNT_ACTUATORS = 120; //cantidad de actuadores asociados al CN\n    uint public constant THRESHOLD        = 130; //umbral para el valor reportado por sus sensores\n\n    //constantes para los sensores\n    uint public constant LAST_READING     = 210; //ltimo valor reportado por el sensor\n\n    //constantes para los actuadores\n    uint public constant ACT_COMMAND      = 310; //indica si el actuador debe trabajar (11) o no (10)\n\n    //constantes para los sensores y actuadores\n    uint public constant PARENT           = 410; //id del CN al que est asociado\n\n    //constantes para todos los dispositivos\n    uint public constant ID               = 510; //id unvoco del dispositivo\n    uint public constant TYPE             = 520; //tipo del dispositivo (S:1|A:2|CN:3)\n    uint public constant PUBLIC_KEY       = 530; //llave pblica del dispositivo\n    uint public constant PERMISSION       = 540; //indica si el dispositivo tiene permiso de operar (11) o no (10)\n    uint public constant ON_OFF_STATUS    = 550; //indica si el dispositivo est encendido (11) o apagado (10)\n\n    //---------------------------------------------------------------------------------------------------------------------------------------------\n    //---VARIABLES DE STORAGE----------------------------------------------------------------------------------------------------------------------\n\n    //el ledger es un mapping de dispositivos y sus variables\n    mapping(uint => mapping(uint => uint)) public devices;          //mapping del id de un dispositivo a su key-value de config\n    mapping(uint => uint[DEVICE_AMOUNT_MAX-1]) public subsensors;   //mapping del id de un CN a su lista de sensores\n    mapping(uint => uint[DEVICE_AMOUNT_MAX-1]) public subactuators; //mapping del id de un CN a su lista de actuadores\n\n    //variables auxiliares en el ledger\n    uint[CONFIG_VARS_MAX] public configkeys_cn;  //lista de keys en el key-value de config de los CN's\n    uint[CONFIG_VARS_MAX] public configkeys_s;   //lista de keys en el key-value de config de los sensores\n    uint[CONFIG_VARS_MAX] public configkeys_a;   //lista de keys en el key-value de config de los actuadores\n    uint[CONFIG_VARS_MAX] public configkeys_sa;  //lista de keys en el key-value de config de los sensores y actuadores\n    uint[CONFIG_VARS_MAX] public configkeys_all; //lista de keys en el key-value de config de todos los dispositivos\n    uint public amount_keys_cn  = 0;             //cantidad de keys en el key-value de config de los CN's\n    uint public amount_keys_s   = 0;             //cantidad de keys en el key-value de config de los sensores\n    uint public amount_keys_a   = 0;             //cantidad de keys en el key-value de config de los actuadores\n    uint public amount_keys_sa  = 0;             //cantidad de keys en el key-value de config de los sensores y actuadores\n    uint public amount_keys_all = 0;             //cantidad de keys en el key-value de config de todos los dispositivos\n\n    //variables auxiliares en el ledger\n    uint[DEVICE_AMOUNT_MAX] public ids; //lista de ids de dispositivos conocidos (admite slo 100, por ahora)\n    uint public amount_devices = 0;     //cantidad de dispositivos conocidos\n    uint public idseq = 0;              //ID del ltimo dispositivo que se ha creado (cero si nunca se ha creado uno)\n    bool public pingvalue = true;       //noms para no mandar un true literal, y que la funcin pueda ser view para llamarla con call\n\n    //---------------------------------------------------------------------------------------------------------------------------------------------\n    //---CONSTRUCTOR-------------------------------------------------------------------------------------------------------------------------------\n\n    //JAHALLA\n    //lo nico que necesita inicializarse son las keys conocidas de config\n    constructor() {\n\n        initKeyValueLists();\n\n        //aqu puedes hardcodear cosas para testear...\n        /*valores hardcodeados para testear:\n            //----------------------------------------------\n            //set 1\n\n            ids[0] = 26;\n            devices[26][ID] = 26;\n            devices[26][TYPE] = COMPUTE_NODE;\n            devices[26][PUBLIC_KEY] = 113634;\n            devices[26][PERMISSION] = HIGH;\n            devices[26][ON_OFF_STATUS] = HIGH;\n            devices[26][AMOUNT_SENSORS] = 2;\n            devices[26][AMOUNT_ACTUATORS] = 2;\n            devices[26][THRESHOLD] = DEFAULT_VALUE;\n\n            ids[1] = 12;\n            devices[12][ID] = 12;\n            devices[12][TYPE] = SENSOR;\n            devices[12][PUBLIC_KEY] = 443853;\n            devices[12][PERMISSION] = HIGH;\n            devices[12][ON_OFF_STATUS] = HIGH;\n            devices[12][PARENT] = 26;\n            devices[12][LAST_READING] = DEFAULT_VALUE;\n\n            ids[2] = 14;\n            devices[14][ID] = 14;\n            devices[14][TYPE] = SENSOR;\n            devices[14][PUBLIC_KEY] = 859867;\n            devices[14][PERMISSION] = HIGH;\n            devices[14][ON_OFF_STATUS] = HIGH;\n            devices[14][PARENT] = 26;\n            devices[14][LAST_READING] = DEFAULT_VALUE;\n\n            ids[3] = 16;\n            devices[16][ID] = 16;\n            devices[16][TYPE] = ACTUATOR;\n            devices[16][PUBLIC_KEY] = 735896;\n            devices[16][PERMISSION] = HIGH;\n            devices[16][ON_OFF_STATUS] = HIGH;\n            devices[16][PARENT] = 26;\n            devices[16][ACT_COMMAND] = LOW;\n\n            ids[4] = 69;\n            devices[69][ID] = 69;\n            devices[69][TYPE] = ACTUATOR;\n            devices[69][PUBLIC_KEY] = 985953;\n            devices[69][PERMISSION] = HIGH;\n            devices[69][ON_OFF_STATUS] = HIGH;\n            devices[69][PARENT] = 26;\n            devices[69][ACT_COMMAND] = LOW;\n\n            subsensors[26][0] = 12;\n            subsensors[26][1] = 14;\n\n            subactuators[26][0] = 16;\n            subactuators[26][1] = 69;\n\n            //----------------------------------------------\n            //set 2\n\n            ids[5] = 36;\n            devices[36][ID] = 36;\n            devices[36][TYPE] = COMPUTE_NODE;\n            devices[36][PUBLIC_KEY] = 263273;\n            devices[36][PERMISSION] = HIGH;\n            devices[36][ON_OFF_STATUS] = HIGH;\n            devices[36][AMOUNT_SENSORS] = 0; //2 para testear antes\n            devices[36][AMOUNT_ACTUATORS] = 0; //2 para testear antes\n            devices[36][THRESHOLD] = DEFAULT_VALUE;\n\n            ids[6] = 49;\n            devices[49][ID] = 49;\n            devices[49][TYPE] = SENSOR;\n            devices[49][PUBLIC_KEY] = 378537;\n            devices[49][PERMISSION] = HIGH;\n            devices[49][ON_OFF_STATUS] = HIGH;\n            devices[49][PARENT] = 36;\n            devices[49][LAST_READING] = DEFAULT_VALUE;\n\n            ids[7] = 45;\n            devices[45][ID] = 45;\n            devices[45][TYPE] = SENSOR;\n            devices[45][PUBLIC_KEY] = 563583;\n            devices[45][PERMISSION] = HIGH;\n            devices[45][ON_OFF_STATUS] = HIGH;\n            devices[45][PARENT] = 36;\n            devices[45][LAST_READING] = DEFAULT_VALUE;\n\n            ids[8] = 78;\n            devices[78][ID] = 78;\n            devices[78][TYPE] = ACTUATOR;\n            devices[78][PUBLIC_KEY] = 675893;\n            devices[78][PERMISSION] = HIGH;\n            devices[78][ON_OFF_STATUS] = HIGH;\n            devices[78][PARENT] = 36;\n            devices[78][ACT_COMMAND] = LOW;\n\n            ids[9] = 76;\n            devices[76][ID] = 76;\n            devices[76][TYPE] = ACTUATOR;\n            devices[76][PUBLIC_KEY] = 103983;\n            devices[76][PERMISSION] = HIGH;\n            devices[76][ON_OFF_STATUS] = HIGH;\n            devices[76][PARENT] = 36;\n            devices[76][ACT_COMMAND] = LOW;\n\n            subsensors[36][0] = 49;\n            subsensors[36][1] = 45;\n\n            subactuators[36][0] = 78;\n            subactuators[36][1] = 76;\n\n            //----------------------------------------------\n            //hurfanos\n\n            ids[10] = 86;\n            devices[86][ID] = 86;\n            devices[86][TYPE] = SENSOR;\n            devices[86][PUBLIC_KEY] = 200356;\n            devices[86][PERMISSION] = HIGH;\n            devices[86][ON_OFF_STATUS] = HIGH;\n            devices[86][PARENT] = DEFAULT_ID;\n            devices[86][LAST_READING] = DEFAULT_VALUE;\n\n            ids[11] = 87;\n            devices[87][ID] = 87;\n            devices[87][TYPE] = SENSOR;\n            devices[87][PUBLIC_KEY] = 200486;\n            devices[87][PERMISSION] = HIGH;\n            devices[87][ON_OFF_STATUS] = HIGH;\n            devices[87][PARENT] = DEFAULT_ID;\n            devices[87][LAST_READING] = DEFAULT_VALUE;\n\n            ids[12] = 88;\n            devices[88][ID] = 88;\n            devices[88][TYPE] = ACTUATOR;\n            devices[88][PUBLIC_KEY] = 200679;\n            devices[88][PERMISSION] = HIGH;\n            devices[88][ON_OFF_STATUS] = HIGH;\n            devices[88][PARENT] = DEFAULT_ID;\n            devices[88][ACT_COMMAND] = LOW;\n\n            amount_devices = 6; //13 para testear antes\n            idseq = 69;\n        */\n    }\n\n    //JAHALLA\n    //Inicializar la lista de variables de config conocidas para cada tipo de dispositivo\n    function initKeyValueLists() public returns(bool success) {\n\n        //constantes para los compute nodes\n        delete configkeys_cn;\n        configkeys_cn[0] = AMOUNT_SENSORS;\n        configkeys_cn[1] = AMOUNT_ACTUATORS;\n        configkeys_cn[2] = THRESHOLD;\n        amount_keys_cn = 3;\n\n        //constantes para los sensores\n        delete configkeys_s;\n        configkeys_s[0] = LAST_READING;\n        amount_keys_s = 1;\n\n        //constantes para los actuadores\n        delete configkeys_a;\n        configkeys_a[0] = ACT_COMMAND;\n        amount_keys_a = 1;\n\n        //constantes para los sensores y actuadores\n        delete configkeys_sa;\n        configkeys_sa[0] = PARENT;\n        amount_keys_sa = 1;\n\n        //constantes para todos los dispositivos\n        delete configkeys_all;\n        configkeys_all[0] = ID;\n        configkeys_all[1] = TYPE;\n        configkeys_all[2] = PUBLIC_KEY;\n        configkeys_all[3] = PERMISSION;\n        configkeys_all[4] = ON_OFF_STATUS;\n        amount_keys_all = 5;\n\n        return true;\n    }\n\n    //---------------------------------------------------------------------------------------------------------------------------------------------\n    //---UTILITY FUNCTIONS FOR MODIFIERS-----------------------------------------------------------------------------------------------------------\n\n    //-----------------------------------------------------------------\n    //Encontrar un dispositivo y verificar que existe------------------\n\n    //JAHALLA\n    //Encontrar el ndice de un ID en la lista de dispositivos (slo funciona sobre el array zeroshifteado)\n    function findIDInDeviceArray(uint target) public view returns(uint devindex) {\n\n        for(uint i=0; i<amount_devices; i++) {\n            if(target == ids[i]) {\n                return i;\n            }\n        }\n\n        //la funcin que llame a esta debe saber que\n        //si se retorna el valor DEVICE_AMOUNT_MAX es que NO se encontr lo que buscaba\n        return DEVICE_AMOUNT_MAX;\n    }\n\n    //---------------------------------------------------------------------------------------------------------------------------------------------\n    //---CRUD OPERATIONS---------------------------------------------------------------------------------------------------------------------------\n\n    //JAHALLA\n    //TERMINAL - Crear / Editar parmetro de configuracin de un dispositivo\n    function writeDeviceVariable(uint id, uint key, uint value) public returns(bool success) {\n        devices[id][key] = value;\n        return true;\n    }\n\n    /*//WRAPPER de writeDeviceVariable - Crear / Editar parmetro de configuracin de un dispositivo\n        //JAHALLA\n        function writeToDevice(uint id, uint key, uint value) public returns(bool success) {\n            //require(deviceExists(id), \"DDE01\");\n            writeDeviceVariable(id, key, value); //si pasa las validaciones, llega a la funcin wrappeada\n            return true;\n        }\n    */\n\n    //JAHALLA\n    //TERMINAL - Leer parmetro de configuracin de un dispositivo\n    function readDeviceVariable(uint id, uint key) public view returns(uint configval) {\n        //para poder foldear...\n        return devices[id][key];\n    }\n\n    /*//WRAPPER de readDeviceVariable - Leer parmetro de configuracin de un dispositivo\n        //JAHALLA\n        function readFromDevice(uint id, uint key) public view returns(uint configval) {\n            //require(deviceExists(id), \"DDE02\");\n            return readDeviceVariable(id, key); //si pasa las validaciones, llega a la funcin wrappeada\n        }\n    */\n\n    //JAHALLA\n    //TERMINAL - Eliminar parmetro de configuracin de un dispositivo\n    function deleteDeviceVariable(uint id, uint key) public returns(bool success) {\n        delete devices[id][key];\n        return true;\n    }\n\n    /*//WRAPPER de deleteDeviceVariable - Eliminar parmetro de configuracin de un dispositivo\n        //JAHALLA\n        function deleteFromDevice(uint id, uint key) public returns(bool success) {\n            //require(deviceExists(id), \"DDE03\");\n            deleteDeviceVariable(id, key); //si pasa las validaciones, llega a la funcin wrappeada\n            return true;\n        }\n    */\n\n    //JAHALLA\n    //Incrementar parmetro de configuracin de un dispositivo\n    function incrementDeviceVariable(uint id, uint key) public returns(bool success) {\n        uint auxvar = readDeviceVariable(id, key);\n        writeDeviceVariable(id, key, auxvar+1);\n        return true;\n    }\n\n    //JAHALLA\n    //Incrementar parmetro de configuracin de un dispositivo\n    function decrementDeviceVariable(uint id, uint key) public returns(bool success) {\n        uint auxvar = readDeviceVariable(id, key);\n        writeDeviceVariable(id, key, auxvar-1);\n        return true;\n    }\n\n    //---------------------------------------------------------------------------------------------------------------------------------------------\n    //---FUNCTIONS FOR VALIDATIONS--------------------------------------------------------------------------------------------------------------------\n\n    //-----------------------------------------------------------------\n    //verificar que los dispositivos existan y sean lo que dicen ser---\n\n    //JAHALLA\n    //CHECK, Verificar que el dispositivo en cuestin exista\n    function deviceExists(uint id) public view returns(bool success) {\n        //para poder foldear...\n        return(findIDInDeviceArray(id) < DEVICE_AMOUNT_MAX);\n    }\n\n    //JAHALLA\n    //CHECK, Verificar que el dispositivo en cuestin sea un Compute Node\n    function isComputeNode(uint id) public view returns(bool success) {\n        //para poder foldear...\n        return(readDeviceVariable(id, TYPE) == COMPUTE_NODE);\n    }\n\n    //JAHALLA\n    //CHECK, Verificar que el dispositivo en cuestin sea un Sensor\n    function isSensor(uint id) public view returns(bool success) {\n        //para poder foldear...\n        return(readDeviceVariable(id, TYPE) == SENSOR);\n    }\n\n    //JAHALLA\n    //CHECK, Verificar que el dispositivo en cuestin sea un Actuador\n    function isActuator(uint id) public view returns(bool success) {\n        //para poder foldear...\n        return(readDeviceVariable(id, TYPE) == ACTUATOR);\n    }\n\n    //JAHALLA\n    //CHECK, Verificar que el dispositivo en cuestin sea un Sensor o Actuador\n    function isSensorOrActuator(uint id) public view returns(bool success) {\n        uint tipo = readDeviceVariable(id, TYPE);\n        return(tipo==SENSOR || tipo==ACTUATOR);\n    }\n\n    //CUANDO SE USE LA PRUEBO...\n    /*//CHECK, Verificar que dos dispositivos sean ambos sensores o ambos actuadores (no se usa!)\n        function bothAreSameSatellite(uint id1, uint id2) public view returns(bool success) { //(no se usa!)\n            uint tipo1 = readDeviceVariable(id1, TYPE);\n            uint tipo2 = readDeviceVariable(id2, TYPE);\n            return( (tipo1==SENSOR && tipo2==SENSOR) || (tipo1==ACTUATOR && tipo2==ACTUATOR) );\n        }\n    */\n\n    //JAHALLA\n    //CHECK, Verificar que un sensor/actuador sea hijo de un compute node\n    function isChildOfCN(uint cn_id, uint sa_id) public view returns(bool success) {\n        //para poder foldear...\n        return(readDeviceVariable(sa_id, PARENT) == cn_id);\n    }\n\n    //-----------------------------------------------------------------\n    //verificar que haya espacio para agregar nuevos dispositivos------\n\n    //JAHALLA\n    //CHECK, Verificar que el lmite de dispositivos conocidos no se haya alcanzado\n    function newDeviceStillFits() public view returns(bool success) {\n        //para poder foldear...\n        return(amount_devices < DEVICE_AMOUNT_MAX);\n    }\n\n    //JAHALLA\n    //CHECK, Verificar que el lmite de sensores asociados a un determinado CN no se haya alcanzado\n    function newSensorStillFitsCN(uint cn_id) public view returns(bool success) {\n        //para poder foldear...\n        return(readDeviceVariable(cn_id, AMOUNT_SENSORS) < DEVICE_AMOUNT_MAX-1);\n    }\n\n    //JAHALLA\n    //CHECK, Verificar que el lmite de actuadores asociados a un determinado CN no se haya alcanzado\n    function newActuatorStillFitsCN(uint cn_id) public view returns(bool success) {\n        //para poder foldear...\n        return(readDeviceVariable(cn_id, AMOUNT_ACTUATORS) < DEVICE_AMOUNT_MAX-1);\n    }\n\n    //-----------------------------------------------------------------\n    //verificar que sea posible eliminar o desasociar un dispositivo---\n\n    //JAHALLA\n    //CHECK, Verificar que existan dispositivos conocidos\n    function knownDevicesExist() public view returns(bool success) {\n        //para poder foldear...\n        return(amount_devices > 0);\n    }\n\n    //JAHALLA\n    //CHECK, Verificar que no se pretenda eliminar un ndice mayor al mximo ni menor a cero\n    function canDeleteDevice(uint index) public view returns(bool success) {\n        //para poder foldear...\n        return(index>=0 && index<amount_devices);\n    }\n\n    //CUANDO SE USE LA PRUEBO...\n    /*//CHECK, Verificar que existan sensores que desasociar de un CN (no se usa!)\n        function knownSubSensorsOfCNExist(uint cn_id) public view returns(bool success) { //(no se usa!)\n            //para poder foldear...\n            return(readDeviceVariable(cn_id, AMOUNT_SENSORS) > 0);\n        }\n    */\n\n    //JAHALLA\n    //CHECK, Verificar que no se pretenda desasociar un ndice mayor al mximo ni menor a cero\n    function canUnlinkSensor(uint cn_id, uint index) public view returns(bool success) {\n        //para poder foldear...\n        return(index>=0 && index<readDeviceVariable(cn_id, AMOUNT_SENSORS));\n    }\n\n    //CUANDO SE USE LA PRUEBO...\n    /*//CHECK, Verificar que existan actuadores que desasociar de un CN (no se usa!)\n        function knownSubActuatorsOfCNExist(uint cn_id) public view returns(bool success) { //(no se usa!)\n            //para poder foldear...\n            return(readDeviceVariable(cn_id, AMOUNT_ACTUATORS) > 0);\n        }\n    */\n\n    //JAHALLA\n    //CHECK, Verificar que no se pretenda desasociar un ndice mayor al mximo ni menor a cero\n    function canUnlinkActuator(uint cn_id, uint index) public view returns(bool success) {\n        //para poder foldear...\n        return(index>=0 && index<readDeviceVariable(cn_id, AMOUNT_ACTUATORS));\n    }\n\n    //JAHALLA\n    //CHECK, Verificar que el dispositivo est asociado a un CN\n    function hasParent(uint id) public view returns(bool success) {\n        //para poder foldear...\n        return(readDeviceVariable(id, PARENT) > DEFAULT_ID);\n    }\n\n    //-----------------------------------------------------------------\n    //verificar que los ndices en los arreglos de IDs sean correctos--\n\n    //CUANDO SE USE LA PRUEBO...\n    /*//CHECK, Verificar que no manden ndices fuera de rango para el arreglo de dispositivos (no se usa!)\n        function isValidDeviceIndex(uint index) public view returns(bool success) { //(no se usa!)\n            //para poder foldear...\n            return(index >= 0 && index < DEVICE_AMOUNT_MAX);\n        }\n    */\n\n    //CUANDO SE USE LA PRUEBO...\n    /*//CHECK, Verificar que no manden ndices fuera de rango para el arreglo de subsensores de un CN (no se usa!)\n        function isValidSubSensorIndex(uint index) public view returns(bool success) { //(no se usa!)\n            //para poder foldear...\n            return(index >= 0 && index < DEVICE_AMOUNT_MAX-1);\n        }\n    */\n\n    //CUANDO SE USE LA PRUEBO...\n    /*//CHECK, Verificar que no manden ndices fuera de rango para el arreglo de subactuadores de un CN (no se usa!)\n        function isValidSubActuatorIndex(uint index) public view returns(bool success) { //(no se usa!)\n            //para poder foldear...\n            return(index >= 0 && index < DEVICE_AMOUNT_MAX-1);\n        }\n    */\n\n    //-----------------------------------------------------------------\n    //verificar que los arreglos de config keys no estn llenos--------\n\n    //JAHALLA\n    //CHECK, Verificar que haya espacio para un nuevo key-value pair para los compute nodes\n    function canFitNewKeyForCNs() public view returns(bool success) {\n        //para poder foldear...\n        return(amount_keys_cn < CONFIG_VARS_MAX);\n    }\n\n    //JAHALLA\n    //CHECK, Verificar que haya espacio para un nuevo key-value pair para los sensores\n    function canFitNewKeyForSensors() public view returns(bool success) {\n        //para poder foldear...\n        return(amount_keys_s < CONFIG_VARS_MAX);\n    }\n\n    //JAHALLA\n    //CHECK, Verificar que haya espacio para un nuevo key-value pair para los actuadores\n    function canFitNewKeyForActuators() public view returns(bool success) {\n        //para poder foldear...\n        return(amount_keys_a < CONFIG_VARS_MAX);\n    }\n\n    //JAHALLA\n    //CHECK, Verificar que haya espacio para un nuevo key-value pair para los sensores y actuadores\n    function canFitNewKeyForSensorsAndActuators() public view returns(bool success) {\n        //para poder foldear...\n        return(amount_keys_sa < CONFIG_VARS_MAX);\n    }\n\n    //JAHALLA\n    //CHECK, Verificar que haya espacio para un nuevo key-value pair para todos los dispositivos\n    function canFitNewKeyForAll() public view returns(bool success) {\n        //para poder foldear...\n        return(amount_keys_all < CONFIG_VARS_MAX);\n    }\n\n    //---------------------------------------------------------------------------------------------------------------------------------------------\n    //---UTILITY FUNCTIONS-------------------------------------------------------------------------------------------------------------------------\n\n    //-----------------------------------------------------------------\n    //swaps------------------------------------------------------------\n\n    //JAHALLA\n    //Intercambiar los ndices de 2 dispositivos en la lista de IDs\n    function swapDeviceIndices(uint i, uint j) public returns(bool success) {\n        uint aux = ids[i];\n        ids[i] = ids[j];\n        ids[j] = aux;\n        return true;\n    }\n\n    //JAHALLA\n    //Intercambiar los ndices de 2 sensores en la lista de IDs de sensores asociados a un CN\n    function swapSubSensorIndices(uint cn_id, uint i, uint j) public returns(bool success) {\n        uint aux = subsensors[cn_id][i];\n        subsensors[cn_id][i] = subsensors[cn_id][j];\n        subsensors[cn_id][j] = aux;\n        return true;\n    }\n\n    //JAHALLA\n    //Intercambiar los ndices de 2 actuadores en la lista de IDs de actuadores asociados a un CN\n    function swapSubActuatorIndices(uint cn_id, uint i, uint j) public returns(bool success) {\n        uint aux = subactuators[cn_id][i];\n        subactuators[cn_id][i] = subactuators[cn_id][j];\n        subactuators[cn_id][j] = aux;\n        return true;\n    }\n\n    //-----------------------------------------------------------------\n    //zero shifts------------------------------------------------------\n\n    //JAHALLA\n    //Mandar los IDs en ceros hasta la derecha de la lista de IDs\n    function zeroShiftDeviceArray() public returns(bool success) {\n\n        uint i = 0;\n        uint j = ids.length-1;\n\n        while(i<j) {\n\n            if(ids[i] > DEFAULT_ID) { //si i es un ID vlido, revisar el siguiente\n                i++;\n            }else if(ids[i]==DEFAULT_ID && ids[j]==DEFAULT_ID) { //si ambos son cero, revisar el anterior con j\n                j--;\n            }else { //si i es cero y j es un ID vlido, swappear y continuar\n                swapDeviceIndices(i,j);\n                i++;\n                j--;\n            }\n        }\n\n        return true;\n    }\n\n    //JAHALLA\n    //Mandar los IDs en ceros hasta la derecha de la lista de sensores asociados a un CN\n    function zeroShiftSubSensorArray(uint id) public returns(bool success) {\n\n        uint i = 0;\n        uint j = subsensors[id].length-1;\n\n        while(i<j) {\n\n            if(subsensors[id][i] > DEFAULT_ID) { //si i es un ID vlido, revisar el siguiente\n                i++;\n            }else if(subsensors[id][i]==DEFAULT_ID && subsensors[id][j]==DEFAULT_ID) { //si ambos son cero, revisar el anterior con j\n                j--;\n            }else { //si i es cero y j es un ID vlido, swappear y continuar\n                swapSubSensorIndices(id,i,j);\n                i++;\n                j--;\n            }\n        }\n\n        return true;\n    }\n\n    //JAHALLA\n    //Mandar los IDs en ceros hasta la derecha de la lista de actuadores asociados a un CN\n    function zeroShiftSubActuatorArray(uint id) public returns(bool success) {\n\n        uint i = 0;\n        uint j = subactuators[id].length-1;\n\n        while(i<j) {\n\n            if(subactuators[id][i] > DEFAULT_ID) { //si i es un ID vlido, revisar el siguiente\n                i++;\n            }else if(subactuators[id][i]==DEFAULT_ID && subactuators[id][j]==DEFAULT_ID) { //si ambos son cero, revisar el anterior con j\n                j--;\n            }else { //si i es cero y j es un ID vlido, swappear y continuar\n                swapSubActuatorIndices(id,i,j);\n                i++;\n                j--;\n            }\n        }\n\n        return true;\n    }\n\n    //-----------------------------------------------------------------\n    //find ID----------------------------------------------------------\n\n    //JAHALLA\n    //Encontrar el ndice de un ID en la lista de subsensores de un CN (slo funciona sobre el array zeroshifteado)\n    function findIDInSubSensorArray(uint cn_id, uint target) public view returns(uint devindex) {\n\n        uint amount_children = readDeviceVariable(cn_id, AMOUNT_SENSORS);\n\n        for(uint i=0; i<amount_children; i++) {\n            if(target == subsensors[cn_id][i]) {\n                return i;\n            }\n        }\n\n        //la funcin que llame a esta debe saber que\n        //si se retorna el valor DEVICE_AMOUNT_MAX-1 es que NO se encontr lo que buscaba\n        return DEVICE_AMOUNT_MAX-1;\n    }\n\n    //JAHALLA\n    //Encontrar el ndice de un ID en la lista de subactuadores de un CN (slo funciona sobre el array zeroshifteado)\n    function findIDInSubActuatorArray(uint cn_id, uint target) public view returns(uint devindex) {\n\n        uint amount_children = readDeviceVariable(cn_id, AMOUNT_ACTUATORS);\n\n        for(uint i=0; i<amount_children; i++) {\n            if(target == subactuators[cn_id][i]) {\n                return i;\n            }\n        }\n\n        //la funcin que llame a esta debe saber que\n        //si se retorna el valor DEVICE_AMOUNT_MAX-1 es que NO se encontr lo que buscaba\n        return DEVICE_AMOUNT_MAX-1;\n    }\n\n    //JAHALLA\n    //Devuelve el ID de un dispositivo, buscando por ndice\n    function getDevice(uint index) public view returns(uint dev_id) {\n        //para poder foldear...\n        return ids[index];\n    }\n\n    //JAHALLA\n    //Devuelve el ID de un subsensor, buscando por ndice\n    function getSubSensor(uint cn_id, uint index) public view returns(uint dev_id) {\n        //para poder foldear...\n        return subsensors[cn_id][index];\n    }\n\n    //JAHALLA\n    //Devuelve el ID de un subactuador, buscando por ndice\n    function getSubActuator(uint cn_id, uint index) public view returns(uint dev_id) {\n        //para poder foldear...\n        return subactuators[cn_id][index];\n    }\n\n    //-----------------------------------------------------------------\n    //add new ID-------------------------------------------------------\n\n    //JAHALLA\n    //Agregar un nuevo ID a la lista de dispositivos\n    function insertIntoDeviceArray(uint new_id) public returns(bool success) {\n\n        ids[amount_devices] = new_id;\n        amount_devices++; //este debe ser el nico lugar donde se incrementa esta variable\n        //zeroShiftDeviceArray(); //no es necesario, asumiendo que antes de esta insercin el array ya estaba zeroshifteado\n        return true;\n    }\n\n    //JAHALLA\n    //Agregar un nuevo ID a la lista de sensores asociados a un CN\n    function insertIntoSubSensorArray(uint cn_id, uint sa_id) public returns(bool success) {\n        subsensors[cn_id][readDeviceVariable(cn_id, AMOUNT_SENSORS)] = sa_id;\n        incrementDeviceVariable(cn_id, AMOUNT_SENSORS); //este debe ser el nico lugar donde se incrementa esta variable\n        //zeroShiftSubSensorArray(cn_id); //no es necesario, asumiendo que antes de esta insercin el array ya estaba zeroshifteado\n        return true;\n    }\n\n    //JAHALLA\n    //Agregar un nuevo ID a la lista de actuadores asociados a un CN\n    function insertIntoSubActuatorArray(uint cn_id, uint sa_id) public returns(bool success) {\n        subactuators[cn_id][readDeviceVariable(cn_id, AMOUNT_ACTUATORS)] = sa_id;\n        incrementDeviceVariable(cn_id, AMOUNT_ACTUATORS); //este debe ser el nico lugar donde se incrementa esta variable\n        //zeroShiftSubActuatorArray(cn_id); //no es necesario, asumiendo que antes de esta insercin el array ya estaba zeroshifteado\n        return true;\n    }\n\n    //JAHALLA\n    //Generar un ID nico e irrepetible para cada dispositivo conocido\n    function generateUniqueID() public returns(uint new_id) {\n\n        //idseq es el ID ms grande que ha sido asignado a un dispositivo\n        //y tambin el ID del ltimo dispositivo que se ha creado\n        uint try_this_id = idseq;\n\n        do {\n            try_this_id++;\n        }while(findIDInDeviceArray(try_this_id) < DEVICE_AMOUNT_MAX);\n\n        //en este punto try_this_id es un ID que nunca ha tenido un dispositivo asociado\n        idseq = try_this_id;\n\n        return try_this_id;\n    }\n\n    //-----------------------------------------------------------------\n    //delete ID--------------------------------------------------------\n\n    //JAHALLA\n    //Eliminar un ID de la lista de dispositivos\n    function deleteFromDeviceArray(uint index) public returns(bool success) {\n\n        ids[index] = ids[ids.length-1]; //overwrite target with last (deletes target and duplicates last)\n        ids[ids.length-1] = DEFAULT_ID; //set last to zero (removes duplicated last)\n\n        amount_devices--; //este debe ser el nico lugar donde se decrementa esta variable\n\n        zeroShiftDeviceArray(); //por si qued un cero entre ID's vlidos\n\n        return true;\n    }\n\n    //JAHALLA\n    //Eliminar un ID de la lista de sensores asociados a un CN\n    function deleteFromSubSensorArray(uint cn_id, uint index) public returns(bool success) {\n\n        subsensors[cn_id][index] = subsensors[cn_id][subsensors[cn_id].length-1]; //overwrite target with last (deletes target and duplicates last)\n        subsensors[cn_id][subsensors[cn_id].length-1] = DEFAULT_ID; //set last to zero (removes duplicated last)\n\n        decrementDeviceVariable(cn_id, AMOUNT_SENSORS); //este debe ser el nico lugar donde se decrementa esta variable\n\n        zeroShiftSubSensorArray(cn_id); //por si qued un cero entre ID's vlidos\n\n        return true;\n    }\n\n    //JAHALLA\n    //Eliminar un ID de la lista de actuadores asociados a un CN\n    function deleteFromSubActuatorArray(uint cn_id, uint index) public returns(bool success) {\n\n        subactuators[cn_id][index] = subactuators[cn_id][subactuators[cn_id].length-1]; //overwrite target with last (deletes target and duplicates last)\n        subactuators[cn_id][subactuators[cn_id].length-1] = DEFAULT_ID; //set last to zero (removes duplicated last)\n\n        decrementDeviceVariable(cn_id, AMOUNT_ACTUATORS); //este debe ser el nico lugar donde se decrementa esta variable\n\n        zeroShiftSubActuatorArray(cn_id); //por si qued un cero entre ID's vlidos\n\n        return true;\n    }\n\n    //-----------------------------------------------------------------\n    //linkear y deslinkear CNs y satlites-----------------------------\n\n    //JAHALLA\n    //Desasociar un sensor o actuador de un compute node\n    function unlinkDeviceFromComputeNode(uint sa_id, uint sa_tipo, uint sa_index, uint cn_id) public returns(bool success) {\n\n        //borrar dispositivo de la lista de sensores/actuadores del CN\n        if(sa_tipo==SENSOR) {\n            deleteFromSubSensorArray(cn_id, sa_index); //aqu se hace un zeroShift y se decrementa el contador de subsensores\n        }else if(sa_tipo==ACTUATOR){\n            deleteFromSubActuatorArray(cn_id, sa_index); //aqu se hace un zeroShift y se decrementa el contador de subactuadores\n        }\n\n        //dejar en blanco el CN del dispositivo\n        writeDeviceVariable(sa_id, PARENT, DEFAULT_ID);\n\n        return true;\n    }\n\n    //JAHALLA\n    //TERMINAL - Asociar un sensor o actuador con un compute node\n    function linkDeviceToComputeNode(uint sa_id, uint cn_id) public returns(bool success) {\n\n        //saber si el dispositivo nuevo es CN, sensor o actuador\n        uint tipo_sa = readDeviceVariable(sa_id, TYPE);\n\n        //agregar el dispositivo a su lista de sensores/actuadores asociados\n        if(tipo_sa==SENSOR) {\n            insertIntoSubSensorArray(cn_id, sa_id); //aqu tambin se incrementa el contador de subsensores\n        }else if(tipo_sa==ACTUATOR) {\n            insertIntoSubActuatorArray(cn_id, sa_id); //aqu tambin se incrementa el contador de subactuadores\n        }\n\n        //setear el CN como padre del dispositivo nuevo\n        writeDeviceVariable(sa_id, PARENT, cn_id);\n\n        return true;\n    }\n\n    /*//WRAPPER de linkDeviceToComputeNode - Asociar un sensor o actuador con un compute node\n        //JAHALLA\n        function linkSubDevice(uint sa_id, uint new_cn) public returns(bool success) {\n\n            //require(deviceExists(new_cn) && isComputeNode(new_cn), \"DDE+NCN03\");\n            //require(deviceExists(sa_id) && !hasParent(sa_id) && ( (isSensor(sa_id) && newSensorStillFitsCN(new_cn) ) || (isActuator(sa_id) && newActuatorStillFitsCN(new_cn) ) ), \"DDE+HPA+SDF+ADF01\");\n\n            linkDeviceToComputeNode(sa_id, new_cn); //si pasa las validaciones, llega a la funcin wrappeada\n            return true;\n        }\n    */\n\n    //-----------------------------------------------------------------\n    //bulk CRUD operations---------------------------------------------\n\n    //JAHALLA\n    //Crear / Editar parmetro de configuracin de todos los dispositivos\n    function bulkWriteDeviceVariable(uint key, uint value) public returns(bool success) {\n\n        for(uint i=0; i<amount_devices; i++) {\n            writeDeviceVariable(ids[i], key, value);\n        }\n\n        return true;\n    }\n\n    //JAHALLA\n    //Crear / Editar parmetro de configuracin de todos los sensores asociados a un CN\n    function bulkWriteSubSensorVariable(uint cn_id, uint key, uint value) public returns(bool success) {\n\n        uint amount_children = readDeviceVariable(cn_id, AMOUNT_SENSORS);\n\n        for(uint i=0; i<amount_children; i++) {\n            writeDeviceVariable(subsensors[cn_id][i], key, value);\n        }\n\n        return true;\n    }\n\n    //JAHALLA\n    //Crear / Editar parmetro de configuracin de todos los actuadores asociados a un CN\n    function bulkWriteSubActuatorVariable(uint cn_id, uint key, uint value) public returns(bool success) {\n\n        uint amount_children = readDeviceVariable(cn_id, AMOUNT_ACTUATORS);\n\n        for(uint i=0; i<amount_children; i++) {\n            writeDeviceVariable(subactuators[cn_id][i], key, value);\n        }\n\n        return true;\n    }\n\n    //-----------------------------------------------------------------\n    //operaciones con los key-values de config-----------------\n\n    //JAHALLA\n    //TERMINAL - Aplicar una configuracin por default para cada tipo de dispositivo\n    function applyDefaultConfig(uint id, uint tipo) public returns(bool success) {\n\n        //por lo pronto jala para un sistema de alumbrado sencillo...\n        //que otro usuario agregue ms variables a su caso de uso...\n        //a fin de cuentas debe ser generalizable y customizable...\n\n        //no tocar PARENT, AMOUNT_SENSORS ni AMOUNT_ACTUATORS o tendra que hacer unlinks.\n\n        writeDeviceVariable(id, ID, id); //510\n        writeDeviceVariable(id, TYPE, tipo); //520\n        writeDeviceVariable(id, PUBLIC_KEY, DEFAULT_VALUE); //530\n        writeDeviceVariable(id, PERMISSION, LOW); //540\n        writeDeviceVariable(id, ON_OFF_STATUS, LOW); //550\n\n        if(tipo==COMPUTE_NODE) {\n            //para poder foldear...\n            writeDeviceVariable(id, THRESHOLD, DEFAULT_VALUE); //130\n        }else if(tipo==SENSOR) {\n            //para poder foldear...\n            writeDeviceVariable(id, LAST_READING, DEFAULT_VALUE); //210\n        }else if(tipo==ACTUATOR) {\n            //para poder foldear...\n            writeDeviceVariable(id, ACT_COMMAND, LOW); //310\n        }\n\n        return true;\n    }\n\n    /*//WRAPPER de applyDefaultConfig - Aplicar una configuracin por default para cada tipo de dispositivo\n        //JAHALLA\n        function resetDeviceToDefault(uint id, uint tipo) public returns(bool success) {\n            //require(deviceExists(id), \"DDE10\");\n            applyDefaultConfig(id, tipo); //si pasa las validaciones, llega a la funcin wrappeada\n            return true;\n        }\n    */\n\n    //JAHALLA\n    //Borrar todos los values del key-value de config de un dispositivo\n    function clearDeviceConfig(uint id) public returns(bool success) {\n\n        //En solidity, no es posible eliminar keys de los mappings,\n        //Tampoco es posible eliminar sus values,\n        //Slo es posible resetear sus values a cero.\n\n        uint tipo = readDeviceVariable(id, TYPE);\n\n        //borrar variables de un solo tipo de dispositivo\n        if(tipo==COMPUTE_NODE) {\n            for(uint i=0; i<amount_keys_cn; i++) {\n                deleteDeviceVariable(id, configkeys_cn[i]);\n            }\n        }else if(tipo==SENSOR) {\n            for(uint i=0; i<amount_keys_s; i++) {\n                deleteDeviceVariable(id, configkeys_s[i]);\n            }\n        }else if(tipo==ACTUATOR) {\n            for(uint i=0; i<amount_keys_a; i++) {\n                deleteDeviceVariable(id, configkeys_a[i]);\n            }\n        }\n\n        //borrar variables presentes tanto en sensores como en actuadores\n        if(tipo==SENSOR || tipo==ACTUATOR) {\n            for(uint i=0; i<amount_keys_sa; i++) {\n                deleteDeviceVariable(id, configkeys_sa[i]);\n            }\n        }\n\n        //borrar variables de todos los dispositivos\n        for(uint i=0; i<amount_keys_all; i++) {\n            deleteDeviceVariable(id, configkeys_all[i]);\n        }\n\n        return true;\n    }\n\n    //JAHALLA\n    //Clonar la config de un sensor o actuador a otro igual\n    function cloneConfig(uint id_src, uint id_dest) public returns(bool success) {\n\n        //clonando el 49 en el 86\n        //ID:49|TYPE:1|PUBLIC_KEY:378537|PERMISSION:10|ON_OFF_STATUS:10|PARENT:36|LAST_READING:999 <--original\n        //ID:86|TYPE:1|PUBLIC_KEY:200356|PERMISSION:11|ON_OFF_STATUS:11|PARENT:00|LAST_READING:0 <-- antes\n        //ID:86|TYPE:1|PUBLIC_KEY:378537|PERMISSION:10|ON_OFF_STATUS:10|PARENT:36|LAST_READING:999 <-- despus\n\n        uint tipo = readDeviceVariable(id_src, TYPE);\n\n        //clonar todas las variables pertinentes excepto ID y TYPE\n        //ID puede ser diferente, TYPE ya debera ser igual\n        //slo est pensada para jalar con sensores y/o actuadores\n\n        if(tipo==SENSOR) {\n            writeDeviceVariable(id_dest, LAST_READING, readDeviceVariable(id_src, LAST_READING));\n        }else if(tipo==ACTUATOR) {\n            writeDeviceVariable(id_dest, ACT_COMMAND,  readDeviceVariable(id_src, ACT_COMMAND));\n        }\n\n        writeDeviceVariable(id_dest, PARENT,        readDeviceVariable(id_src, PARENT));\n        writeDeviceVariable(id_dest, PUBLIC_KEY,    readDeviceVariable(id_src, PUBLIC_KEY));\n        writeDeviceVariable(id_dest, PERMISSION,    readDeviceVariable(id_src, PERMISSION));\n        writeDeviceVariable(id_dest, ON_OFF_STATUS, readDeviceVariable(id_src, ON_OFF_STATUS));\n\n        return true;\n    }\n\n    //JAHALLA\n    //TERMINAL - Agregar un nuevo key-value de config a los CNs (1xx) (default: 3)\n    function addCNKey(uint key) public returns(bool success) {\n        configkeys_cn[amount_keys_cn] = key;\n        amount_keys_cn++; //default: 3\n        return true;\n    }\n\n    /*//WRAPPER de addCNKey - Agregar un nuevo key-value de config a los CNs (1xx)\n        //JAHALLA\n        function addNewConfigKeyForCNs(uint key) public returns(bool success) {\n            //require(canFitNewKeyForCNs(), \"KCN\");\n            addCNKey(key); //si pasa las validaciones, llega a la funcin wrappeada\n            return true;\n        }\n    */\n\n    //JAHALLA\n    //TERMINAL - Agregar un nuevo key-value de config a los Sensores (2xx) (default: 1)\n    function addSensorKey(uint key) public returns(bool success) {\n        configkeys_s[amount_keys_s] = key;\n        amount_keys_s++; //default: 1\n        return true;\n    }\n\n    /*//WRAPPER de addSensorKey - Agregar un nuevo key-value de config a los Sensores (2xx)\n        //JAHALLA\n        function addNewConfigKeyForSensors(uint key) public returns(bool success) {\n            //require(canFitNewKeyForSensors(), \"KSN\");\n            addSensorKey(key); //si pasa las validaciones, llega a la funcin wrappeada\n            return true;\n        }\n    */\n\n    //JAHALLA\n    //TERMINAL - Agregar un nuevo key-value de config a los Actuadores (3xx) (default: 1)\n    function addActuatorKey(uint key) public returns(bool success) {\n        configkeys_a[amount_keys_a] = key;\n        amount_keys_a++; //default: 1\n        return true;\n    }\n\n    /*//WRAPPER de addActuatorKey - Agregar un nuevo key-value de config a los Actuadores (3xx)\n        //JAHALLA\n        function addNewConfigKeyForActuators(uint key) public returns(bool success) {\n            //require(canFitNewKeyForActuators(), \"KAC\");\n            addActuatorKey(key); //si pasa las validaciones, llega a la funcin wrappeada\n            return true;\n        }\n    */\n\n    //JAHALLA\n    //TERMINAL - Agregar un nuevo key-value de config a los Sensores y Actuadores (4xx) (default: 1)\n    function addSatelliteKey(uint key) public returns(bool success) {\n        configkeys_sa[amount_keys_sa] = key;\n        amount_keys_sa++; //default: 1\n        return true;\n    }\n\n    /*//WRAPPER de addSatelliteKey - Agregar un nuevo key-value de config a los Sensores y Actuadores (4xx)\n        //JAHALLA\n        function addNewConfigKeyForSensorsAndActuators(uint key) public returns(bool success) {\n            //require(canFitNewKeyForSensorsAndActuators(), \"KST\");\n            addSatelliteKey(key); //si pasa las validaciones, llega a la funcin wrappeada\n            return true;\n        }\n    */\n\n    //JAHALLA\n    //TERMINAL - Agregar un nuevo key-value de config a todos los dispositivos (5xx) (default: 5)\n    function addDeviceKey(uint key) public returns(bool success) {\n        configkeys_all[amount_keys_all] = key;\n        amount_keys_all++; //default: 5\n        return true;\n    }\n\n    /*//WRAPPER de addDeviceKey - Agregar un nuevo key-value de config a todos los dispositivos (5xx)\n        //JAHALLA\n        function addNewConfigKeyForAll(uint key) public returns(bool success) {\n            //require(canFitNewKeyForAll(), \"KDV\");\n            addDeviceKey(key); //si pasa las validaciones, llega a la funcin wrappeada\n            return true;\n        }\n    */\n\n    //-----------------------------------------------------------------\n    //alta y baja de dispositivos--------------------------------------\n\n    //JAHALLA\n    //TERMINAL - Alta de un dispositivo\n    function createDevice(uint tipo) public returns(uint new_dev_id) {\n\n        generateUniqueID(); //esto guarda el nuevo ID en idseq\n\n        insertIntoDeviceArray(idseq); //agregar ID de nuevo dispositivo a la lista de IDs dados de alta\n\n        //bug en potencia: aqu tengo que usar clearDeviceConfig() en el nuevo dispositivo\n        //pero me lo voy a brincar porque YOLO...\n\n        applyDefaultConfig(idseq, tipo); //setear con valores default las variables del nuevo dispositivo\n\n        return idseq;\n    }\n\n    /*//WRAPPER de createDevice - Alta de un dispositivo\n        //JAHALLA\n        function makeNewDevice(uint tipo) public returns(uint new_dev_id) {\n            //require(newDeviceStillFits(), \"DDF01\");\n            return createDevice(tipo); //si pasa las validaciones, llega a la funcin wrappeada\n        }\n    */\n\n    //JAHALLA\n    //Borra un dispositivo del mapping global de dispositivos y de la lista global de dispositivos\n    function removeDevice(uint id, uint devindex) public returns(bool success) {\n\n        //eliminar las variables de config del dispositivo\n        clearDeviceConfig(id);\n\n        //borrar al dispositivo de la lista de IDs\n        deleteFromDeviceArray(devindex); //aqu dentro se decrementa el contador de dispositivos y hace un zeroShift\n\n        return true;\n    }\n\n    //JAHALLA\n    //Eliminar un sensor o actuador y primero lo deslinkea de su CN\n    function deleteSatellite(uint id, uint devindex, uint sa_tipo, uint parent_cn, uint subindex) public returns(bool success) {\n\n        //si tiene CN padre, deslinkearlo de l\n        if(parent_cn > DEFAULT_ID) {\n            unlinkDeviceFromComputeNode(id, sa_tipo, subindex, parent_cn);\n        }\n\n        //eliminar las variables de config del dispositivo,\n        //borrar al dispositivo de la lista de IDs,\n        //hacer un zeroShift de la lista de IDs,\n        //y decrementar el contador de dispositivos\n        removeDevice(id, devindex);\n\n        return true;\n    }\n\n    //JAHALLA\n    //Eliminar los subsensores de un CN\n    function deleteSubSensors(uint cn_id) public returns(bool success) {\n\n        while(readDeviceVariable(cn_id, AMOUNT_SENSORS) > 0) {\n            deleteSatellite(\n                subsensors[cn_id][0], //usa el ndice cero porque cada loop hace un zeroShift\n                findIDInDeviceArray(subsensors[cn_id][0]),\n                SENSOR,\n                cn_id,\n                0\n            );\n        }\n\n        return true;\n    }\n\n    //JAHALLA\n    //Eliminar los subactuadores de un CN\n    function deleteSubActuators(uint cn_id) public returns(bool success) {\n\n        while(readDeviceVariable(cn_id, AMOUNT_ACTUATORS) > 0) {\n            deleteSatellite(\n                subactuators[cn_id][0], //usa el ndice cero porque cada loop hace un zeroShift\n                findIDInDeviceArray(subactuators[cn_id][0]),\n                ACTUATOR,\n                cn_id,\n                0\n            );\n        }\n\n        return true;\n    }\n\n    //JAHALLA\n    //Eliminar un compute node y primero elimina todos sus satelites\n    function deleteComputeNode(uint id, uint devindex) public returns(bool success) {\n\n        /*pruebas\n\n            devices, original:\n            26:CN | 12:S | 14:S | 16:A | 69:A | 36:CN | 49:S | 45:S | 78:A | 76:A | 86:S | 87:S | 88:A\n            --0   |   1  |   2  |   3  |   4  |   5   |   6  |   7  |   8  |   9  |  10  |  11  |  12\n\n            devices, tras borrar subsensores:\n            26:CN | 88:A | 87:S | 16:A | 69:A | 36:CN | 49:S | 45:S | 78:A | 76:A | 86:S\n            --0   |   1  |   2  |   3  |   4  |   5   |   6  |   7  |   8  |   9  |  10\n\n            devices, tras borrar subactuadores:\n            26:CN | 88:A | 87:S | 86:S | 76:A | 36:CN | 49:S | 45:S | 78:A\n            --0   |   1  |   2  |   3  |   4  |   5   |   6  |   7  |   8\n\n            devices, tras borrar el compute node:\n            78:A | 88:A | 87:S | 86:S | 76:A | 36:CN | 49:S | 45:S\n            --0  |   1  |   2  |   3  |   4  |   5   |   6  |   7\n\n            satlites, original: S:12,14|A:16,69\n            satlites, tras borrar subsensores: S:|A:16,69\n            satlites, tras borrar subactuadores: S:|A:\n            satlites, tras borrar el compute node: S:|A:\n\n            config, original\n            26: ID:26|TYPE:3|PUBLIC_KEY:113634|PERMISSION:11|ON_OFF_STATUS:11|AMOUNT_SENSORS:2|AMOUNT_ACTUATORS:2|THRESHOLD:0\n            12: ID:12|TYPE:1|PUBLIC_KEY:443853|PERMISSION:11|ON_OFF_STATUS:11|PARENT:26|LAST_READING:0\n            14: ID:14|TYPE:1|PUBLIC_KEY:859867|PERMISSION:11|ON_OFF_STATUS:11|PARENT:26|LAST_READING:0\n            16: ID:16|TYPE:2|PUBLIC_KEY:735896|PERMISSION:11|ON_OFF_STATUS:11|PARENT:26|ACT_COMMAND:10\n            69: ID:69|TYPE:2|PUBLIC_KEY:985953|PERMISSION:11|ON_OFF_STATUS:11|PARENT:26|ACT_COMMAND:10\n\n            config, tras borrar subsensores:\n            26: ID:26|TYPE:3|PUBLIC_KEY:113634|PERMISSION:11|ON_OFF_STATUS:11|AMOUNT_SENSORS:0|AMOUNT_ACTUATORS:2|THRESHOLD:0\n            12: ID:0|TYPE:0|PUBLIC_KEY:0|PERMISSION:0|ON_OFF_STATUS:0\n            14: ID:0|TYPE:0|PUBLIC_KEY:0|PERMISSION:0|ON_OFF_STATUS:0\n            16: ID:16|TYPE:2|PUBLIC_KEY:735896|PERMISSION:11|ON_OFF_STATUS:11|PARENT:26|ACT_COMMAND:10\n            69: ID:69|TYPE:2|PUBLIC_KEY:985953|PERMISSION:11|ON_OFF_STATUS:11|PARENT:26|ACT_COMMAND:10\n\n            config, tras borrar subactuadores:\n            26: ID:26|TYPE:3|PUBLIC_KEY:113634|PERMISSION:11|ON_OFF_STATUS:11|AMOUNT_SENSORS:0|AMOUNT_ACTUATORS:0|THRESHOLD:0\n            12: ID:0|TYPE:0|PUBLIC_KEY:0|PERMISSION:0|ON_OFF_STATUS:0\n            14: ID:0|TYPE:0|PUBLIC_KEY:0|PERMISSION:0|ON_OFF_STATUS:0\n            16: ID:0|TYPE:0|PUBLIC_KEY:0|PERMISSION:0|ON_OFF_STATUS:0\n            69: ID:0|TYPE:0|PUBLIC_KEY:0|PERMISSION:0|ON_OFF_STATUS:0\n\n            config, tras borrar el compute node:\n            26: ID:0|TYPE:0|PUBLIC_KEY:0|PERMISSION:0|ON_OFF_STATUS:0\n            12: ID:0|TYPE:0|PUBLIC_KEY:0|PERMISSION:0|ON_OFF_STATUS:0\n            14: ID:0|TYPE:0|PUBLIC_KEY:0|PERMISSION:0|ON_OFF_STATUS:0\n            16: ID:0|TYPE:0|PUBLIC_KEY:0|PERMISSION:0|ON_OFF_STATUS:0\n            69: ID:0|TYPE:0|PUBLIC_KEY:0|PERMISSION:0|ON_OFF_STATUS:0\n        */\n\n        //borrar a todos los subsensores\n        deleteSubSensors(id);\n\n        //borrar a todos los subactuadores\n        deleteSubActuators(id);\n\n        //al llegar aqu ya se borraron todos los satlites del CN\n        //entonces ya podemos vaciar sus listas de satlites\n        delete subsensors[id];\n        delete subactuators[id];\n\n        //eliminar las variables de config del dispositivo,\n        //borrar al dispositivo de la lista de IDs,\n        //hacer un zeroShift de la lista de IDs,\n        //y decrementar el contador de dispositivos\n        removeDevice(id, devindex);\n\n        return true;\n    }\n\n    //-----------------------------------------------------------------\n    //output de variables internas para debuggear----------------------\n\n    //JAHALLA\n    //TERMINAL - Retorna un string con toda la config de un dispositivo\n    function getDeviceInfo(uint id) public view returns(string memory devicedata) {\n\n        //pruebas:\n        //sensor:      ID:49|TYPE:1|PUBLIC_KEY:378537|PERMISSION:11|ON_OFF_STATUS:11|PARENT:36|LAST_READING:0\n        //actuador:    ID:69|TYPE:2|PUBLIC_KEY:985953|PERMISSION:11|ON_OFF_STATUS:11|PARENT:26|ACT_COMMAND:10\n        //computenode: ID:26|TYPE:3|PUBLIC_KEY:113634|PERMISSION:11|ON_OFF_STATUS:11|AMOUNT_SENSORS:2|AMOUNT_ACTUATORS:2|THRESHOLD:0\n\n        uint tipo = readDeviceVariable(id, TYPE);\n\n        string memory keyvalues = string.concat(\n            \"ID:\",             Strings.toString(readDeviceVariable(id,ID)),           //all\n            \"|TYPE:\",          Strings.toString(readDeviceVariable(id,TYPE)),         //all\n            \"|PUBLIC_KEY:\",    Strings.toString(readDeviceVariable(id,PUBLIC_KEY)),   //all\n            \"|PERMISSION:\",    Strings.toString(readDeviceVariable(id,PERMISSION)),   //all\n            \"|ON_OFF_STATUS:\", Strings.toString(readDeviceVariable(id,ON_OFF_STATUS)) //all\n        );\n\n        if(tipo==COMPUTE_NODE) {\n            keyvalues = string.concat(\n                keyvalues,\n                \"|AMOUNT_SENSORS:\",   Strings.toString(readDeviceVariable(id,AMOUNT_SENSORS)),   //CN\n                \"|AMOUNT_ACTUATORS:\", Strings.toString(readDeviceVariable(id,AMOUNT_ACTUATORS)), //CN\n                \"|THRESHOLD:\",        Strings.toString(readDeviceVariable(id,THRESHOLD))         //CN\n            );\n        }else if(tipo==SENSOR) {\n            keyvalues = string.concat(\n                keyvalues,\n                \"|PARENT:\",       Strings.toString(readDeviceVariable(id,PARENT)),      //SA\n                \"|LAST_READING:\", Strings.toString(readDeviceVariable(id,LAST_READING)) //S\n            );\n        }else if(tipo==ACTUATOR) {\n            keyvalues = string.concat(\n                keyvalues,\n                \"|PARENT:\",      Strings.toString(readDeviceVariable(id,PARENT)),     //SA\n                \"|ACT_COMMAND:\", Strings.toString(readDeviceVariable(id,ACT_COMMAND)) //A\n            );\n        }\n\n        return keyvalues;\n    }\n\n    /*//WRAPPER de getDeviceInfo - Retorna un string con toda la config de un dispositivo\n        //JAHALLA\n        function deviceInfoToString(uint id) public view returns(string memory devicedata) {\n            //require(deviceExists(id), \"DDE04\");\n            return getDeviceInfo(id); //si pasa las validaciones, llega a la funcin wrappeada\n        }\n    */\n\n    //JAHALLA\n    //TERMINAL - Retorna un string con los IDs de los satelites de un CN\n    function getSatellites(uint id) public view returns(string memory satellites) {\n\n        //pruebas\n        //CN#26: S:12,14|A:16,69\n        //CN#36: S:49,45|A:78,76\n\n        uint children_s = readDeviceVariable(id, AMOUNT_SENSORS);\n        uint children_a = readDeviceVariable(id, AMOUNT_ACTUATORS);\n\n        string memory subdevices = \"S:\";\n\n        for(uint i=0; i<children_s; i++) {\n            subdevices = string.concat(subdevices, Strings.toString(subsensors[id][i]));\n            if(i < children_s-1) {\n                subdevices = string.concat(subdevices, \",\");\n            }\n        }\n\n        subdevices = string.concat(subdevices, \"|A:\");\n\n        for(uint i=0; i<children_a; i++) {\n            subdevices = string.concat(subdevices, Strings.toString(subactuators[id][i]));\n            if(i < children_a-1) {\n                subdevices = string.concat(subdevices, \",\");\n            }\n        }\n\n        return subdevices;\n    }\n\n    /*//WRAPPER de getSatellites - Retorna un string con los IDs de los satelites de un CN\n        //JAHALLA\n        function satelliteListToString(uint id) public view returns(string memory satellites) {\n            //require(deviceExists(id) && isComputeNode(id), \"DDE+NCN01\");\n            return getSatellites(id); //si pasa las validaciones, llega a la funcin wrappeada\n        }\n    */\n\n    //JAHALLA\n    //TERMINAL - Retorna una lista de los IDs de todos los dispositivos\n    function getDevices() public view returns(string memory devicelist) {\n\n        //prueba\n        //26:CN,12:S,14:S,16:A,69:A,36:CN,49:S,45:S,78:A,76:A,86:S,87:S,88:A\n\n        string memory devlist = \"\";\n        uint tipo;\n        string memory t_letter;\n\n        for(uint i=0; i<amount_devices; i++) {\n\n            tipo = readDeviceVariable(ids[i], TYPE);\n\n            if(tipo==COMPUTE_NODE) {\n                t_letter = \"CN\";\n            }else if(tipo==SENSOR) {\n                t_letter = \"S\";\n            }else if(tipo==ACTUATOR) {\n                t_letter = \"A\";\n            }\n\n            devlist = string.concat(devlist, Strings.toString(ids[i]), \":\", t_letter);\n\n            if(i < amount_devices-1) {\n                devlist = string.concat(devlist, \",\");\n            }\n        }\n\n        return devlist;\n    }\n\n    /*//WRAPPER de getDevices - Retorna una lista de los IDs de todos los dispositivos\n        //JAHALLA\n        function deviceListToString() public view returns(string memory devicelist) {\n            //require(knownDevicesExist(), \"NKD01\");\n            return getDevices(); //si pasa las validaciones, llega a la funcin wrappeada\n        }\n    */\n\n    //---------------------------------------------------------------------------------------------------------------------------------------------\n    //---MGMT FUNCTIONS----------------------------------------------------------------------------------------------------------------------------\n\n    //-------------------------------------------------------------\n    //Simple Config & State Changes--------------------------------\n\n    //JAHALLA\n    //TERMINAL - Ping al back-end para pruebas de conectividad\n    function pingBackEnd() public view returns(bool success) {\n        //para poder foldear...\n        return pingvalue; //siempre es true\n    }\n\n    //JAHALLA\n    //TERMINAL - Devuelve el ID del ltimo dispositivo que se ha creado\n    function getLatestID() public view returns(uint latestid) {\n        //para poder foldear...\n        return idseq;\n    }\n\n    //JAHALLA\n    //TERMINAL - Autenticar un dispositivo\n    function authDevice(uint id) public view returns(uint devpubkey) {\n\n        //proceso de autenticacin:\n            //GAMA manda a python un mensaje de parte de 1 dispositivo\n            //el mensaje est firmado con su llave privada\n            //en python, se recibe y guarda el mensaje\n            //python llama a esta funcin en ETH para pedir la llave pblica del dispositivo\n            //obtenemos del ledger la llave pblica del dispositivo y la retornamos a python\n            //desencriptamos en python el mensaje usando la llave pblica\n            //si s se deja desencriptar, lo autenticamos\n        //\n\n        //para setear la llave pblica de un dispositivo en el ledger\n        //basta con mandarla con la funcin writeDeviceVariable() u otra funcin que la wrape\n\n        //require(deviceExists(id), \"DDE05\");\n        return readDeviceVariable(id, PUBLIC_KEY);\n    }\n\n    //JAHALLA\n    //TERMINAL - Otorgar permisos a un dispositivo\n    function grantPerms(uint id) public returns(bool success) {\n        //require(deviceExists(id), \"DDE06\");\n        writeDeviceVariable(id, PERMISSION, HIGH);\n        return true;\n    }\n\n    //JAHALLA\n    //TERMINAL - Denegar permisos a un dispositivo\n    function denyPerms(uint id) public returns(bool success) {\n\n        //require(deviceExists(id), \"DDE07\");\n\n        writeDeviceVariable(id, PERMISSION, LOW);\n\n        //si es un CN, cascadear la negacin de permisos a sus S/A\n        if(readDeviceVariable(id, TYPE) == COMPUTE_NODE) {\n            bulkWriteSubSensorVariable(id, PERMISSION, LOW);\n            bulkWriteSubActuatorVariable(id, PERMISSION, LOW);\n        }\n        return true;\n    }\n\n    //JAHALLA\n    //TERMINAL - Encender dispositivo\n    function turnOnDevice(uint id) public returns(bool success) {\n        //require(deviceExists(id), \"DDE08\");\n        writeDeviceVariable(id, ON_OFF_STATUS, HIGH);\n        return true;\n    }\n\n    //JAHALLA\n    //TERMINAL - Apagar dispositivo\n    function turnOffDevice(uint id) public returns(bool success) {\n\n        //require(deviceExists(id), \"DDE09\");\n\n        writeDeviceVariable(id, ON_OFF_STATUS, LOW);\n\n        //si es un CN, cascadear el apagado a sus S/A\n        if(readDeviceVariable(id, TYPE) == COMPUTE_NODE) {\n            bulkWriteSubSensorVariable(id, ON_OFF_STATUS, LOW);\n            bulkWriteSubActuatorVariable(id, ON_OFF_STATUS, LOW);\n        }\n\n        return true;\n    }\n\n    //JAHALLA\n    //TERMINAL - Encender todos los dispositivos\n    function turnOnAllDevices() public returns(bool success) {\n        //require(knownDevicesExist(), \"NKD02\");\n        bulkWriteDeviceVariable(ON_OFF_STATUS, HIGH);\n        return true;\n    }\n\n    //JAHALLA\n    //TERMINAL - Apagar todos los dispositivos\n    function turnOffAllDevices() public returns(bool success) {\n        //require(knownDevicesExist(), \"NKD03\");\n        bulkWriteDeviceVariable(ON_OFF_STATUS, LOW);\n        return true;\n    }\n\n    //-------------------------------------------------------------\n    //Complex Config & State Changes-------------------------------\n\n    //JAHALLA\n    //TERMINAL - Escribir en el ledger la lectura de un sensor\n    function uploadReading(uint cn_id, uint sensor_id, uint reading) public returns(bool success) {\n\n        //esta funcin debe triggerearse cada vez que un sensor (en GAMA) realiza una lectura.\n\n        //require(deviceExists(cn_id) && isComputeNode(cn_id), \"DDE+NCN02\");\n        //require(deviceExists(sensor_id) && isSensor(sensor_id) && isChildOfCN(cn_id, sensor_id), \"DDE+NSN+NCH01\");\n\n        //cual es el threshold, status y permisos del CN\n        uint cn_threshold = readDeviceVariable(cn_id, THRESHOLD);\n        uint cn_perms     = readDeviceVariable(cn_id, PERMISSION);\n        uint cn_status    = readDeviceVariable(cn_id, ON_OFF_STATUS);\n\n        //cual es el status y permisos del sensor\n        uint sensor_perms  = readDeviceVariable(sensor_id, PERMISSION);\n        uint sensor_status = readDeviceVariable(sensor_id, ON_OFF_STATUS);\n\n        //si el threshold no est seteado, o si el CN o el sensor no tienen permisos o si estn apagados\n        //esta operacin no se debe realizar\n        if(cn_threshold==DEFAULT_VALUE || cn_perms<HIGH || cn_status<HIGH || sensor_perms<HIGH || sensor_status<HIGH) {\n            return false;\n        }\n\n        //guardar el valor sensado en la config del sensor\n        writeDeviceVariable(sensor_id, LAST_READING, reading);\n\n        return true;\n    }\n\n    //TERMINAL - Evaluar si segn las lecturas de los sensores de un CN, sus actuadores deben triggerearse\n    function evalSensors(uint cn_id) public returns(bool success) {\n\n        //esta funcin debe triggerearse cada vez que todos los sensores del mismo CN (en GAMA) realizan una lectura.\n\n        //aqu iran los requires pero meh...\n\n        //cual es el threshold, permisos y status del CN\n        uint threshold = readDeviceVariable(cn_id, THRESHOLD);\n        uint perms     = readDeviceVariable(cn_id, PERMISSION);\n        uint status    = readDeviceVariable(cn_id, ON_OFF_STATUS);\n\n        //si el threshold no est seteado, o si el CN no tiene permisos o si est apagado\n        //esta operacin no se debe realizar\n        if(threshold==DEFAULT_VALUE || perms<HIGH || status<HIGH) {\n            return false;\n        }\n\n        //cuantos subsensores hay en total\n        uint amount_sensors = readDeviceVariable(cn_id, AMOUNT_SENSORS);\n\n        //comenzar un proceso en el que checamos si la mayora de los sensores\n        //reportan lecturas que rebasan el threshold de su CN\n        uint superiors = 0; //cuantos reportan lecturas mayores al threshold\n        uint inferiors = 0; //cuantos reportan lecturas menores o iguales al threshold\n\n        //valores de todos los subsensores del mismo CN\n        uint curr_status;\n        uint curr_perms;\n        uint curr_reading;\n\n        //contar cuantos reportan lecturas mayores y menores al threshold\n        for(uint i=0; i<amount_sensors; i++) {\n\n            curr_status  = readDeviceVariable( getSubSensor(cn_id,i), ON_OFF_STATUS );\n            curr_perms   = readDeviceVariable( getSubSensor(cn_id,i), PERMISSION );\n            curr_reading = readDeviceVariable( getSubSensor(cn_id,i), LAST_READING );\n\n            if(curr_status<HIGH || curr_perms<HIGH || curr_reading==threshold) { //sensor apagado, sin permisos o igual al threshold, no cuenta\n                continue;\n            }else if(curr_reading > threshold) {\n                superiors++;\n            }else if(curr_reading < threshold) {\n                inferiors++;\n            }\n        }\n\n        //ESTA LGICA ES PARA UN SISTEMA QUE ENCIENDE LUZ ARTIFICIAL CUANDO FALTA LUZ NATURAL\n        //AL FALTAR LUZ NATURAL, SE ENCIENDEN LOS FOCOS (AL NO REBASAR EL THRESHOLD, SE ENCIENDEN LOS ACTUADORES)\n        //AL DETECTAR LUZ NATURAL, SE APAGAN LOS FOCOS (AL REBASAR EL THRESHOLD, SE DETIENEN LOS ACTUADORES)\n        //SI NO SE PUEDE DETERMINAR LA CANTIDAD DE LUZ NATURAL, DEJAR TODO IGUAL\n\n        if(superiors > inferiors) {\n            bulkWriteSubActuatorVariable(cn_id, ACT_COMMAND, LOW); //si se detecta luz, apagar los focos\n        }else if(superiors < inferiors) {\n            bulkWriteSubActuatorVariable(cn_id, ACT_COMMAND, HIGH); //si falta luz, prender los focos\n        }\n\n        return true;\n    }\n\n    //TERMINAL - Devuelve el comando de actuacin de los actuadores de un CN\n    function reportCommand(uint cn_id) public view returns(uint command) {\n\n        //si el CN no tuviera subactuadores, devolver el default\n        if(readDeviceVariable(cn_id, AMOUNT_ACTUATORS) == 0) {\n            return DEFAULT_VALUE;\n        }\n\n        //devolver el valor de command de un subactuador cualquiera\n        //al cabo que todos deben tener el mismo\n        return readDeviceVariable( getSubActuator(cn_id,0), ACT_COMMAND );\n    }\n\n    //JAHALLA\n    //TERMINAL - Desasociar un sensor o actuador de un compute node\n    function unlinkSubDevice(uint sa_id) public returns(bool success) {\n\n        //require(deviceExists(sa_id) && isSensorOrActuator(sa_id) && hasParent(sa_id), \"DDE+NSN+NAC+NCH01\");\n\n        //saber si es sensor o actuador\n        uint sa_tipo = readDeviceVariable(sa_id, TYPE);\n\n        //saber quin es el CN del dispositivo a borrar\n        uint parent_cn = readDeviceVariable(sa_id, PARENT);\n\n        //saber el ndice del S/A en el arreglo de satlites del CN\n        uint sa_index;\n\n        //checar si el ndice que buscamos eliminar existe\n        if(sa_tipo==SENSOR) {\n            sa_index = findIDInSubSensorArray(parent_cn, sa_id); //encontrar el sensor en la lista\n            //require(canUnlinkSensor(parent_cn, sa_index), \"CUS01\");\n        }else if(sa_tipo==ACTUATOR){\n            sa_index = findIDInSubActuatorArray(parent_cn, sa_id); //encontrar el actuador en la lista\n            //require(canUnlinkActuator(parent_cn, sa_index), \"CUA01\");\n        }\n\n        unlinkDeviceFromComputeNode(sa_id, sa_tipo, sa_index, parent_cn);\n\n        return true;\n    }\n\n    //JAHALLA\n    //TERMINAL - Eliminar un sensor o actuador y primero lo deslinkea de su CN\n    function destroySatellite(uint id) public returns(bool success) {\n\n        //IMPORTANTE: desde GAMA ya se debe saber el tipo de dispositivo\n        //y llamar a la funcin correcta para eliminarlo\n        //puede ser esta o destroyComputeNode()\n\n        uint devindex = findIDInDeviceArray(id);\n\n        //require(canDeleteDevice(devindex) && isSensorOrActuator(id), \"CDD+NSN+NAC01\");\n\n        uint sa_tipo = readDeviceVariable(id, TYPE);\n        uint parent_cn = readDeviceVariable(id, PARENT);\n        uint subindex;\n\n        if(parent_cn > DEFAULT_ID) { //si tiene CN padre, deslinkearlo de l\n\n            if(sa_tipo==SENSOR) {\n                subindex = findIDInSubSensorArray(parent_cn, id);\n                //require(canUnlinkSensor(parent_cn, subindex), \"CUS02\");\n            }else if(sa_tipo==ACTUATOR) {\n                subindex = findIDInSubActuatorArray(parent_cn, id);\n                //require(canUnlinkActuator(parent_cn, subindex), \"CUA02\");\n            }\n        }\n\n        deleteSatellite(id, devindex, sa_tipo, parent_cn, subindex);\n\n        return true;\n    }\n\n    //JAHALLA\n    //TERMINAL - Eliminar un compute node y primero elimina todos sus satelites\n    function destroyComputeNode(uint id) public returns(bool success) {\n\n        //IMPORTANTE: desde GAMA ya se debe saber el tipo de dispositivo\n        //y llamar a la funcin correcta para eliminarlo\n        //puede ser esta o destroySatellite()\n\n        //26:CN,12:S,14:S,16:A,69:A,36:CN,49:S,45:S,78:A,76:A,86:S,87:S,88:A\n        //S:49,45|A:78,76\n\n        //26:CN,12:S,14:S,16:A,69:A,86:S,88:A,87:S\n        //S:|A:\n\n        uint devindex = findIDInDeviceArray(id);\n        //require(canDeleteDevice(devindex) && isComputeNode(id), \"CDD+NCN01\");\n        deleteComputeNode(id, devindex);\n        return true;\n    }\n\n    //JAHALLA\n    //Borrar todos los sensores y actuadores\n    function deleteAllSatellites() public returns(bool success) {\n\n        //26:CN,12:S,14:S,16:A,69:A,36:CN\n        //26 - S:12,14|A:16,69\n\n        uint curr_id;\n        uint curr_tipo;\n        uint parent_cn;\n        uint subindex;\n\n        //puse los breaks para cuando i=0 porque\n        //como i es uint, me da miedo que el i-- de hecho incremente la i al mximo\n        //y entonces la condicin de i>=0 del for siempre se cumpla...\n\n        for(uint i=amount_devices-1; i>=0; i--) {\n\n            curr_id   = getDevice(i);\n            curr_tipo = readDeviceVariable(curr_id, TYPE);\n            parent_cn = readDeviceVariable(curr_id, PARENT);\n\n            if(curr_tipo==COMPUTE_NODE) {\n                if(i==0) {break;}\n                continue;\n            }else if(curr_tipo==SENSOR) {\n                subindex = findIDInSubSensorArray(parent_cn, curr_id);\n            }else if(curr_tipo==ACTUATOR) {\n                subindex = findIDInSubActuatorArray(parent_cn, curr_id);\n            }\n\n            //aqu dentro se hace el unlink, el zeroshift y se decrementan los contadores de dispositivos\n            deleteSatellite(curr_id, i, curr_tipo, parent_cn, subindex);\n\n            if(i==0) {break;}\n        }\n\n        return true;\n    }\n\n    //JAHALLA\n    //TERMINAL - Inicializar el sistema completo\n    function deleteAllDevices() public returns(bool success) {\n\n        //require(knownDevicesExist(), \"NKD04\");\n\n        //borrar primero todos los sensores y actuadores\n        deleteAllSatellites();\n\n        //en este punto asumimos que todos los devices que quedan son compute nodes\n        //y que ninguno se va a tener que meter a borrar sus satlites\n        while(amount_devices > 0) {\n            //aqu dentro se hace el unlink, el zeroshift y se decrementan los contadores de dispositivos\n            deleteComputeNode(getDevice(0), 0);\n        }\n\n        return true;\n    }\n\n    //JAHALLA\n    //TERMINAL - Reemplazar un sensor o actuador\n    function replaceDevice(uint sa_id) public returns(uint new_dev_id) {\n\n        //require(deviceExists(sa_id) && isSensorOrActuator(sa_id), \"DDE+NSN+NAC01\");\n        //require(newDeviceStillFits(), \"DDF02\");\n\n        uint parent_cn = readDeviceVariable(sa_id, PARENT);\n        uint tipo      = readDeviceVariable(sa_id, TYPE);\n        uint subindex  = 0;\n\n        if(parent_cn > DEFAULT_ID) {\n\n            if(tipo==SENSOR) {\n                //require(newSensorStillFitsCN(parent_cn),\"SDF01\");\n                subindex = findIDInSubSensorArray(parent_cn, sa_id);\n            }else if(tipo==ACTUATOR) {\n                //require(newActuatorStillFitsCN(parent_cn),\"ADF01\");\n                subindex = findIDInSubActuatorArray(parent_cn, sa_id);\n            }\n        }\n\n        //si pasa las validaciones, llega a la funcin wrappeada\n\n        //crear un device nuevo\n        uint new_id = createDevice(tipo);\n\n        //clonar la configuracin del viejo en el nuevo\n        cloneConfig(sa_id, new_id);\n\n        //si el viejo tuviera padre, el nuevo tambin debe tenerlo\n        if(parent_cn > DEFAULT_ID) {\n            linkDeviceToComputeNode(new_id, parent_cn);\n        }\n\n        //borrar el viejo\n        deleteSatellite(\n            sa_id,\n            findIDInDeviceArray(sa_id),\n            tipo,\n            parent_cn,\n            subindex\n        );\n\n        return new_id;\n    }\n}\n\n//eof\n",
  "sourcePath": "/home/enorma/biotmgmt_deployed/contracts/BIoTMgmt.sol",
  "compiler": {
    "name": "solc",
    "version": "0.8.13+commit.abaa5c0e.Emscripten.clang"
  },
  "schemaVersion": "3.4.7",
  "updatedAt": "2022-10-18T19:32:52.832Z",
  "networkType": "ethereum",
  "devdoc": {
    "custom:dev-run-script": "./scripts/deploy_with_ethers.ts",
    "details": "BIoT management functions for my master's thesis's PoC.",
    "kind": "dev",
    "methods": {},
    "title": "BIoTMgmt",
    "version": 1
  },
  "userdoc": {
    "kind": "user",
    "methods": {},
    "version": 1
  }
}